{
  "contracts/libraries/Orders.sol": {
    "Orders": {
      "abi": [
        {
          "inputs": [],
          "name": "ORDER_TYPEHASH",
          "outputs": [
            {
              "internalType": "bytes32",
              "name": "",
              "type": "bytes32"
            }
          ],
          "stateMutability": "view",
          "type": "function"
        }
      ],
      "evm": {
        "bytecode": {
          "linkReferences": {},
          "object": "60aa610024600b82828239805160001a607314601757fe5b30600052607381538281f3fe730000000000000000000000000000000000000000301460806040526004361060335760003560e01c8063f973a209146038575b600080fd5b603e6050565b60408051918252519081900360200190f35b7f7c228c78bd055996a44b5046fb56fa7c28c66bce92d9dc584f742b2cd76a140f8156fea2646970667358221220080c14aed9cf6f6faf104f44d3adcdc232a54625dcaad2b029ba94e1405939d264736f6c634300060c0033",
          "opcodes": "PUSH1 0xAA PUSH2 0x24 PUSH1 0xB DUP3 DUP3 DUP3 CODECOPY DUP1 MLOAD PUSH1 0x0 BYTE PUSH1 0x73 EQ PUSH1 0x17 JUMPI INVALID JUMPDEST ADDRESS PUSH1 0x0 MSTORE PUSH1 0x73 DUP2 MSTORE8 DUP3 DUP2 RETURN INVALID PUSH20 0x0 ADDRESS EQ PUSH1 0x80 PUSH1 0x40 MSTORE PUSH1 0x4 CALLDATASIZE LT PUSH1 0x33 JUMPI PUSH1 0x0 CALLDATALOAD PUSH1 0xE0 SHR DUP1 PUSH4 0xF973A209 EQ PUSH1 0x38 JUMPI JUMPDEST PUSH1 0x0 DUP1 REVERT JUMPDEST PUSH1 0x3E PUSH1 0x50 JUMP JUMPDEST PUSH1 0x40 DUP1 MLOAD SWAP2 DUP3 MSTORE MLOAD SWAP1 DUP2 SWAP1 SUB PUSH1 0x20 ADD SWAP1 RETURN JUMPDEST PUSH32 0x7C228C78BD055996A44B5046FB56FA7C28C66BCE92D9DC584F742B2CD76A140F DUP2 JUMP INVALID LOG2 PUSH5 0x6970667358 0x22 SLT KECCAK256 ADDMOD 0xC EQ 0xAE 0xD9 0xCF PUSH16 0x6FAF104F44D3ADCDC232A54625DCAAD2 0xB0 0x29 0xBA SWAP5 0xE1 BLOCKHASH MSIZE CODECOPY 0xD2 PUSH5 0x736F6C6343 STOP MOD 0xC STOP CALLER "
        },
        "methodIdentifiers": {
          "ORDER_TYPEHASH()": "f973a209"
        }
      }
    }
  }
}