{
  "contracts/mock/SettlementCaller.sol": {
    "SettlementCaller": {
      "abi": [
        {
          "inputs": [
            {
              "internalType": "contract ISettlement",
              "name": "_settlement",
              "type": "address"
            }
          ],
          "stateMutability": "nonpayable",
          "type": "constructor"
        },
        {
          "inputs": [
            {
              "components": [
                {
                  "components": [
                    {
                      "internalType": "address",
                      "name": "maker",
                      "type": "address"
                    },
                    {
                      "internalType": "address",
                      "name": "fromToken",
                      "type": "address"
                    },
                    {
                      "internalType": "address",
                      "name": "toToken",
                      "type": "address"
                    },
                    {
                      "internalType": "uint256",
                      "name": "amountIn",
                      "type": "uint256"
                    },
                    {
                      "internalType": "uint256",
                      "name": "amountOutMin",
                      "type": "uint256"
                    },
                    {
                      "internalType": "address",
                      "name": "recipient",
                      "type": "address"
                    },
                    {
                      "internalType": "uint256",
                      "name": "deadline",
                      "type": "uint256"
                    },
                    {
                      "internalType": "uint8",
                      "name": "v",
                      "type": "uint8"
                    },
                    {
                      "internalType": "bytes32",
                      "name": "r",
                      "type": "bytes32"
                    },
                    {
                      "internalType": "bytes32",
                      "name": "s",
                      "type": "bytes32"
                    }
                  ],
                  "internalType": "struct Orders.Order",
                  "name": "order",
                  "type": "tuple"
                },
                {
                  "internalType": "uint256",
                  "name": "amountToFillIn",
                  "type": "uint256"
                },
                {
                  "internalType": "address[]",
                  "name": "path",
                  "type": "address[]"
                }
              ],
              "internalType": "struct ISettlement.FillOrderArgs",
              "name": "args",
              "type": "tuple"
            }
          ],
          "name": "fillOrder",
          "outputs": [
            {
              "internalType": "uint256",
              "name": "amountOut",
              "type": "uint256"
            }
          ],
          "stateMutability": "nonpayable",
          "type": "function"
        }
      ],
      "evm": {
        "bytecode": {
          "linkReferences": {},
          "object": "608060405234801561001057600080fd5b506040516103f43803806103f483398101604081905261002f91610054565b600080546001600160a01b0319166001600160a01b0392909216919091179055610082565b600060208284031215610065578081fd5b81516001600160a01b038116811461007b578182fd5b9392505050565b610363806100916000396000f3fe608060405234801561001057600080fd5b506004361061002b5760003560e01c806368bce8a214610030575b600080fd5b61004361003e3660046100f9565b610059565b60405161005091906102ab565b60405180910390f35b6000805460405163345e745160e11b81526001600160a01b03909116906368bce8a29061008a9085906004016101ad565b602060405180830381600087803b1580156100a457600080fd5b505af11580156100b8573d6000803e3d6000fd5b505050506040513d601f19601f820116820180604052508101906100dc9190610139565b92915050565b80356001600160a01b03811681146100dc57600080fd5b60006020828403121561010a578081fd5b813567ffffffffffffffff811115610120578182fd5b82016101808185031215610132578182fd5b9392505050565b60006020828403121561014a578081fd5b5051919050565b6001600160a01b03169052565b60008284526020808501945082825b8581101561019b578183016001600160a01b0361018a82856100e2565b16885296830196915060010161016d565b509495945050505050565b60ff169052565b600060208252602083016101cd602084016101c883876100e2565b610151565b6101d781856102b4565b90506101e66040840182610151565b506101f460408401846102b4565b6102016060840182610151565b5060608301356080830152608083013560a083015261022360a08401846102b4565b61023060c0840182610151565b5060c083013560e083015261024860e084018461031b565b610100610257818501836101a6565b61012091508085013582850152506101408185013581850152610160915080850135828501525061028a818501856102cc565b6101808581015291506102a26101a08501838361015e565b95945050505050565b90815260200190565b600082356001600160a01b0381168114610132578182fd5b6000808335601e198436030181126102e2578283fd5b830160208101925035905067ffffffffffffffff81111561030257600080fd5b60208102360383131561031457600080fd5b9250929050565b6000823560ff81168114610132578182fdfea2646970667358221220d91a392fb5b3439e8759965b6de3d9e05a4285744bbd7a5fc508b394a593bb9664736f6c634300060c0033",
          "opcodes": "PUSH1 0x80 PUSH1 0x40 MSTORE CALLVALUE DUP1 ISZERO PUSH2 0x10 JUMPI PUSH1 0x0 DUP1 REVERT JUMPDEST POP PUSH1 0x40 MLOAD PUSH2 0x3F4 CODESIZE SUB DUP1 PUSH2 0x3F4 DUP4 CODECOPY DUP2 ADD PUSH1 0x40 DUP2 SWAP1 MSTORE PUSH2 0x2F SWAP2 PUSH2 0x54 JUMP JUMPDEST PUSH1 0x0 DUP1 SLOAD PUSH1 0x1 PUSH1 0x1 PUSH1 0xA0 SHL SUB NOT AND PUSH1 0x1 PUSH1 0x1 PUSH1 0xA0 SHL SUB SWAP3 SWAP1 SWAP3 AND SWAP2 SWAP1 SWAP2 OR SWAP1 SSTORE PUSH2 0x82 JUMP JUMPDEST PUSH1 0x0 PUSH1 0x20 DUP3 DUP5 SUB SLT ISZERO PUSH2 0x65 JUMPI DUP1 DUP2 REVERT JUMPDEST DUP2 MLOAD PUSH1 0x1 PUSH1 0x1 PUSH1 0xA0 SHL SUB DUP2 AND DUP2 EQ PUSH2 0x7B JUMPI DUP2 DUP3 REVERT JUMPDEST SWAP4 SWAP3 POP POP POP JUMP JUMPDEST PUSH2 0x363 DUP1 PUSH2 0x91 PUSH1 0x0 CODECOPY PUSH1 0x0 RETURN INVALID PUSH1 0x80 PUSH1 0x40 MSTORE CALLVALUE DUP1 ISZERO PUSH2 0x10 JUMPI PUSH1 0x0 DUP1 REVERT JUMPDEST POP PUSH1 0x4 CALLDATASIZE LT PUSH2 0x2B JUMPI PUSH1 0x0 CALLDATALOAD PUSH1 0xE0 SHR DUP1 PUSH4 0x68BCE8A2 EQ PUSH2 0x30 JUMPI JUMPDEST PUSH1 0x0 DUP1 REVERT JUMPDEST PUSH2 0x43 PUSH2 0x3E CALLDATASIZE PUSH1 0x4 PUSH2 0xF9 JUMP JUMPDEST PUSH2 0x59 JUMP JUMPDEST PUSH1 0x40 MLOAD PUSH2 0x50 SWAP2 SWAP1 PUSH2 0x2AB JUMP JUMPDEST PUSH1 0x40 MLOAD DUP1 SWAP2 SUB SWAP1 RETURN JUMPDEST PUSH1 0x0 DUP1 SLOAD PUSH1 0x40 MLOAD PUSH4 0x345E7451 PUSH1 0xE1 SHL DUP2 MSTORE PUSH1 0x1 PUSH1 0x1 PUSH1 0xA0 SHL SUB SWAP1 SWAP2 AND SWAP1 PUSH4 0x68BCE8A2 SWAP1 PUSH2 0x8A SWAP1 DUP6 SWAP1 PUSH1 0x4 ADD PUSH2 0x1AD JUMP JUMPDEST PUSH1 0x20 PUSH1 0x40 MLOAD DUP1 DUP4 SUB DUP2 PUSH1 0x0 DUP8 DUP1 EXTCODESIZE ISZERO DUP1 ISZERO PUSH2 0xA4 JUMPI PUSH1 0x0 DUP1 REVERT JUMPDEST POP GAS CALL ISZERO DUP1 ISZERO PUSH2 0xB8 JUMPI RETURNDATASIZE PUSH1 0x0 DUP1 RETURNDATACOPY RETURNDATASIZE PUSH1 0x0 REVERT JUMPDEST POP POP POP POP PUSH1 0x40 MLOAD RETURNDATASIZE PUSH1 0x1F NOT PUSH1 0x1F DUP3 ADD AND DUP3 ADD DUP1 PUSH1 0x40 MSTORE POP DUP2 ADD SWAP1 PUSH2 0xDC SWAP2 SWAP1 PUSH2 0x139 JUMP JUMPDEST SWAP3 SWAP2 POP POP JUMP JUMPDEST DUP1 CALLDATALOAD PUSH1 0x1 PUSH1 0x1 PUSH1 0xA0 SHL SUB DUP2 AND DUP2 EQ PUSH2 0xDC JUMPI PUSH1 0x0 DUP1 REVERT JUMPDEST PUSH1 0x0 PUSH1 0x20 DUP3 DUP5 SUB SLT ISZERO PUSH2 0x10A JUMPI DUP1 DUP2 REVERT JUMPDEST DUP2 CALLDATALOAD PUSH8 0xFFFFFFFFFFFFFFFF DUP2 GT ISZERO PUSH2 0x120 JUMPI DUP2 DUP3 REVERT JUMPDEST DUP3 ADD PUSH2 0x180 DUP2 DUP6 SUB SLT ISZERO PUSH2 0x132 JUMPI DUP2 DUP3 REVERT JUMPDEST SWAP4 SWAP3 POP POP POP JUMP JUMPDEST PUSH1 0x0 PUSH1 0x20 DUP3 DUP5 SUB SLT ISZERO PUSH2 0x14A JUMPI DUP1 DUP2 REVERT JUMPDEST POP MLOAD SWAP2 SWAP1 POP JUMP JUMPDEST PUSH1 0x1 PUSH1 0x1 PUSH1 0xA0 SHL SUB AND SWAP1 MSTORE JUMP JUMPDEST PUSH1 0x0 DUP3 DUP5 MSTORE PUSH1 0x20 DUP1 DUP6 ADD SWAP5 POP DUP3 DUP3 JUMPDEST DUP6 DUP2 LT ISZERO PUSH2 0x19B JUMPI DUP2 DUP4 ADD PUSH1 0x1 PUSH1 0x1 PUSH1 0xA0 SHL SUB PUSH2 0x18A DUP3 DUP6 PUSH2 0xE2 JUMP JUMPDEST AND DUP9 MSTORE SWAP7 DUP4 ADD SWAP7 SWAP2 POP PUSH1 0x1 ADD PUSH2 0x16D JUMP JUMPDEST POP SWAP5 SWAP6 SWAP5 POP POP POP POP POP JUMP JUMPDEST PUSH1 0xFF AND SWAP1 MSTORE JUMP JUMPDEST PUSH1 0x0 PUSH1 0x20 DUP3 MSTORE PUSH1 0x20 DUP4 ADD PUSH2 0x1CD PUSH1 0x20 DUP5 ADD PUSH2 0x1C8 DUP4 DUP8 PUSH2 0xE2 JUMP JUMPDEST PUSH2 0x151 JUMP JUMPDEST PUSH2 0x1D7 DUP2 DUP6 PUSH2 0x2B4 JUMP JUMPDEST SWAP1 POP PUSH2 0x1E6 PUSH1 0x40 DUP5 ADD DUP3 PUSH2 0x151 JUMP JUMPDEST POP PUSH2 0x1F4 PUSH1 0x40 DUP5 ADD DUP5 PUSH2 0x2B4 JUMP JUMPDEST PUSH2 0x201 PUSH1 0x60 DUP5 ADD DUP3 PUSH2 0x151 JUMP JUMPDEST POP PUSH1 0x60 DUP4 ADD CALLDATALOAD PUSH1 0x80 DUP4 ADD MSTORE PUSH1 0x80 DUP4 ADD CALLDATALOAD PUSH1 0xA0 DUP4 ADD MSTORE PUSH2 0x223 PUSH1 0xA0 DUP5 ADD DUP5 PUSH2 0x2B4 JUMP JUMPDEST PUSH2 0x230 PUSH1 0xC0 DUP5 ADD DUP3 PUSH2 0x151 JUMP JUMPDEST POP PUSH1 0xC0 DUP4 ADD CALLDATALOAD PUSH1 0xE0 DUP4 ADD MSTORE PUSH2 0x248 PUSH1 0xE0 DUP5 ADD DUP5 PUSH2 0x31B JUMP JUMPDEST PUSH2 0x100 PUSH2 0x257 DUP2 DUP6 ADD DUP4 PUSH2 0x1A6 JUMP JUMPDEST PUSH2 0x120 SWAP2 POP DUP1 DUP6 ADD CALLDATALOAD DUP3 DUP6 ADD MSTORE POP PUSH2 0x140 DUP2 DUP6 ADD CALLDATALOAD DUP2 DUP6 ADD MSTORE PUSH2 0x160 SWAP2 POP DUP1 DUP6 ADD CALLDATALOAD DUP3 DUP6 ADD MSTORE POP PUSH2 0x28A DUP2 DUP6 ADD DUP6 PUSH2 0x2CC JUMP JUMPDEST PUSH2 0x180 DUP6 DUP2 ADD MSTORE SWAP2 POP PUSH2 0x2A2 PUSH2 0x1A0 DUP6 ADD DUP4 DUP4 PUSH2 0x15E JUMP JUMPDEST SWAP6 SWAP5 POP POP POP POP POP JUMP JUMPDEST SWAP1 DUP2 MSTORE PUSH1 0x20 ADD SWAP1 JUMP JUMPDEST PUSH1 0x0 DUP3 CALLDATALOAD PUSH1 0x1 PUSH1 0x1 PUSH1 0xA0 SHL SUB DUP2 AND DUP2 EQ PUSH2 0x132 JUMPI DUP2 DUP3 REVERT JUMPDEST PUSH1 0x0 DUP1 DUP4 CALLDATALOAD PUSH1 0x1E NOT DUP5 CALLDATASIZE SUB ADD DUP2 SLT PUSH2 0x2E2 JUMPI DUP3 DUP4 REVERT JUMPDEST DUP4 ADD PUSH1 0x20 DUP2 ADD SWAP3 POP CALLDATALOAD SWAP1 POP PUSH8 0xFFFFFFFFFFFFFFFF DUP2 GT ISZERO PUSH2 0x302 JUMPI PUSH1 0x0 DUP1 REVERT JUMPDEST PUSH1 0x20 DUP2 MUL CALLDATASIZE SUB DUP4 SGT ISZERO PUSH2 0x314 JUMPI PUSH1 0x0 DUP1 REVERT JUMPDEST SWAP3 POP SWAP3 SWAP1 POP JUMP JUMPDEST PUSH1 0x0 DUP3 CALLDATALOAD PUSH1 0xFF DUP2 AND DUP2 EQ PUSH2 0x132 JUMPI DUP2 DUP3 REVERT INVALID LOG2 PUSH5 0x6970667358 0x22 SLT KECCAK256 0xD9 BYTE CODECOPY 0x2F 0xB5 0xB3 NUMBER SWAP15 DUP8 MSIZE SWAP7 JUMPDEST PUSH14 0xE3D9E05A4285744BBD7A5FC508B3 SWAP5 0xA5 SWAP4 0xBB SWAP7 PUSH5 0x736F6C6343 STOP MOD 0xC STOP CALLER "
        },
        "methodIdentifiers": {
          "fillOrder(((address,address,address,uint256,uint256,address,uint256,uint8,bytes32,bytes32),uint256,address[]))": "68bce8a2"
        }
      }
    }
  }
}