{
  "contractName": "OrderBook",
  "abi": [
    {
      "inputs": [],
      "stateMutability": "nonpayable",
      "type": "constructor"
    },
    {
      "anonymous": false,
      "inputs": [
        {
          "indexed": true,
          "internalType": "bytes32",
          "name": "hash",
          "type": "bytes32"
        }
      ],
      "name": "OrderCreated",
      "type": "event"
    },
    {
      "inputs": [],
      "name": "DOMAIN_SEPARATOR",
      "outputs": [
        {
          "internalType": "bytes32",
          "name": "",
          "type": "bytes32"
        }
      ],
      "stateMutability": "view",
      "type": "function"
    },
    {
      "inputs": [
        {
          "internalType": "bytes32",
          "name": "",
          "type": "bytes32"
        }
      ],
      "name": "orderOfHash",
      "outputs": [
        {
          "internalType": "address",
          "name": "maker",
          "type": "address"
        },
        {
          "internalType": "address",
          "name": "fromToken",
          "type": "address"
        },
        {
          "internalType": "address",
          "name": "toToken",
          "type": "address"
        },
        {
          "internalType": "uint256",
          "name": "amountIn",
          "type": "uint256"
        },
        {
          "internalType": "uint256",
          "name": "amountOutMin",
          "type": "uint256"
        },
        {
          "internalType": "address",
          "name": "recipient",
          "type": "address"
        },
        {
          "internalType": "uint256",
          "name": "deadline",
          "type": "uint256"
        },
        {
          "internalType": "uint8",
          "name": "v",
          "type": "uint8"
        },
        {
          "internalType": "bytes32",
          "name": "r",
          "type": "bytes32"
        },
        {
          "internalType": "bytes32",
          "name": "s",
          "type": "bytes32"
        }
      ],
      "stateMutability": "view",
      "type": "function"
    },
    {
      "inputs": [
        {
          "internalType": "address",
          "name": "maker",
          "type": "address"
        }
      ],
      "name": "numberOfHashesOfMaker",
      "outputs": [
        {
          "internalType": "uint256",
          "name": "",
          "type": "uint256"
        }
      ],
      "stateMutability": "view",
      "type": "function"
    },
    {
      "inputs": [
        {
          "internalType": "address",
          "name": "fromToken",
          "type": "address"
        }
      ],
      "name": "numberOfHashesOfFromToken",
      "outputs": [
        {
          "internalType": "uint256",
          "name": "",
          "type": "uint256"
        }
      ],
      "stateMutability": "view",
      "type": "function"
    },
    {
      "inputs": [
        {
          "internalType": "address",
          "name": "toToken",
          "type": "address"
        }
      ],
      "name": "numberOfHashesOfToToken",
      "outputs": [
        {
          "internalType": "uint256",
          "name": "",
          "type": "uint256"
        }
      ],
      "stateMutability": "view",
      "type": "function"
    },
    {
      "inputs": [],
      "name": "numberOfAllHashes",
      "outputs": [
        {
          "internalType": "uint256",
          "name": "",
          "type": "uint256"
        }
      ],
      "stateMutability": "view",
      "type": "function"
    },
    {
      "inputs": [
        {
          "internalType": "address",
          "name": "maker",
          "type": "address"
        },
        {
          "internalType": "uint256",
          "name": "page",
          "type": "uint256"
        },
        {
          "internalType": "uint256",
          "name": "limit",
          "type": "uint256"
        }
      ],
      "name": "hashesOfMaker",
      "outputs": [
        {
          "internalType": "bytes32[]",
          "name": "",
          "type": "bytes32[]"
        }
      ],
      "stateMutability": "view",
      "type": "function"
    },
    {
      "inputs": [
        {
          "internalType": "address",
          "name": "fromToken",
          "type": "address"
        },
        {
          "internalType": "uint256",
          "name": "page",
          "type": "uint256"
        },
        {
          "internalType": "uint256",
          "name": "limit",
          "type": "uint256"
        }
      ],
      "name": "hashesOfFromToken",
      "outputs": [
        {
          "internalType": "bytes32[]",
          "name": "",
          "type": "bytes32[]"
        }
      ],
      "stateMutability": "view",
      "type": "function"
    },
    {
      "inputs": [
        {
          "internalType": "address",
          "name": "toToken",
          "type": "address"
        },
        {
          "internalType": "uint256",
          "name": "page",
          "type": "uint256"
        },
        {
          "internalType": "uint256",
          "name": "limit",
          "type": "uint256"
        }
      ],
      "name": "hashesOfToToken",
      "outputs": [
        {
          "internalType": "bytes32[]",
          "name": "",
          "type": "bytes32[]"
        }
      ],
      "stateMutability": "view",
      "type": "function"
    },
    {
      "inputs": [
        {
          "internalType": "uint256",
          "name": "page",
          "type": "uint256"
        },
        {
          "internalType": "uint256",
          "name": "limit",
          "type": "uint256"
        }
      ],
      "name": "allHashes",
      "outputs": [
        {
          "internalType": "bytes32[]",
          "name": "",
          "type": "bytes32[]"
        }
      ],
      "stateMutability": "view",
      "type": "function"
    },
    {
      "inputs": [
        {
          "components": [
            {
              "internalType": "address",
              "name": "maker",
              "type": "address"
            },
            {
              "internalType": "address",
              "name": "fromToken",
              "type": "address"
            },
            {
              "internalType": "address",
              "name": "toToken",
              "type": "address"
            },
            {
              "internalType": "uint256",
              "name": "amountIn",
              "type": "uint256"
            },
            {
              "internalType": "uint256",
              "name": "amountOutMin",
              "type": "uint256"
            },
            {
              "internalType": "address",
              "name": "recipient",
              "type": "address"
            },
            {
              "internalType": "uint256",
              "name": "deadline",
              "type": "uint256"
            },
            {
              "internalType": "uint8",
              "name": "v",
              "type": "uint8"
            },
            {
              "internalType": "bytes32",
              "name": "r",
              "type": "bytes32"
            },
            {
              "internalType": "bytes32",
              "name": "s",
              "type": "bytes32"
            }
          ],
          "internalType": "struct Orders.Order",
          "name": "order",
          "type": "tuple"
        }
      ],
      "name": "createOrder",
      "outputs": [],
      "stateMutability": "nonpayable",
      "type": "function"
    }
  ],
  "bytecode": "0x60a06040523480156200001157600080fd5b5060004690507f8b73c3c69bb8fe3d512ecc4cf759cc79239f7b179b0ffacaa9a75d522b39400f7f84ec3e40ac87b7e93d40b42ac60cbcf224a757106614dac5eb0cc5fc9be1f03c7fc89efdaa54c0f20c7adf612882df0950f5a951637e0307cdcb4c672f298b8bc6833060405160200162000092959493929190620000e9565b6040516020818303038152906040528051906020012060808181525050506200018e565b620000c18162000146565b82525050565b620000d2816200015a565b82525050565b620000e38162000184565b82525050565b600060a082019050620001006000830188620000c7565b6200010f6020830187620000c7565b6200011e6040830186620000c7565b6200012d6060830185620000d8565b6200013c6080830184620000b6565b9695505050505050565b6000620001538262000164565b9050919050565b6000819050919050565b600073ffffffffffffffffffffffffffffffffffffffff82169050919050565b6000819050919050565b608051611b32620001ae600039806103d652806106a85250611b326000f3fe608060405234801561001057600080fd5b50600436106100a95760003560e01c80635fd45d24116100715780635fd45d241461018c57806365f7a551146101bc57806375af1c36146101ec578063bceb45db1461020a578063d08b34bb14610243578063df4c1b411461025f576100a9565b806303e0992f146100ae5780630777aa32146100de57806314eaa8681461010e5780633644e5151461013e5780633d91efcf1461015c575b600080fd5b6100c860048036038101906100c391906111f4565b61028f565b6040516100d591906119a6565b60405180910390f35b6100f860048036038101906100f391906111f4565b6102db565b60405161010591906119a6565b60405180910390f35b6101286004803603810190610123919061121d565b610327565b6040516101359190611766565b60405180910390f35b6101466103d4565b6040516101539190611788565b60405180910390f35b610176600480360381019061017191906111f4565b6103f8565b60405161018391906119a6565b60405180910390f35b6101a660048036038101906101a1919061121d565b610444565b6040516101b39190611766565b60405180910390f35b6101d660048036038101906101d1919061121d565b6104f1565b6040516101e39190611766565b60405180910390f35b6101f461059e565b60405161020191906119a6565b60405180910390f35b610224600480360381019061021f919061126c565b6105aa565b60405161023a9a999897969594939291906116ca565b60405180910390f35b61025d60048036038101906102589190611295565b61068b565b005b610279600480360381019061027491906112bf565b610b51565b6040516102869190611766565b60405180910390f35b6000600260008373ffffffffffffffffffffffffffffffffffffffff1673ffffffffffffffffffffffffffffffffffffffff168152602001908152602001600020805490509050919050565b6000600160008373ffffffffffffffffffffffffffffffffffffffff1673ffffffffffffffffffffffffffffffffffffffff168152602001908152602001600020805490509050919050565b60606103cb8383600260008873ffffffffffffffffffffffffffffffffffffffff1673ffffffffffffffffffffffffffffffffffffffff1681526020019081526020016000208054806020026020016040519081016040528092919081815260200182805480156103b757602002820191906000526020600020905b8154815260200190600101908083116103a3575b5050505050610bc09092919063ffffffff16565b90509392505050565b7f000000000000000000000000000000000000000000000000000000000000000081565b6000600360008373ffffffffffffffffffffffffffffffffffffffff1673ffffffffffffffffffffffffffffffffffffffff168152602001908152602001600020805490509050919050565b60606104e88383600160008873ffffffffffffffffffffffffffffffffffffffff1673ffffffffffffffffffffffffffffffffffffffff1681526020019081526020016000208054806020026020016040519081016040528092919081815260200182805480156104d457602002820191906000526020600020905b8154815260200190600101908083116104c0575b5050505050610bc09092919063ffffffff16565b90509392505050565b60606105958383600360008873ffffffffffffffffffffffffffffffffffffffff1673ffffffffffffffffffffffffffffffffffffffff16815260200190815260200160002080548060200260200160405190810160405280929190818152602001828054801561058157602002820191906000526020600020905b81548152602001906001019080831161056d575b5050505050610bc09092919063ffffffff16565b90509392505050565b60008080549050905090565b60046020528060005260406000206000915090508060000160009054906101000a900473ffffffffffffffffffffffffffffffffffffffff16908060010160009054906101000a900473ffffffffffffffffffffffffffffffffffffffff16908060020160009054906101000a900473ffffffffffffffffffffffffffffffffffffffff16908060030154908060040154908060050160009054906101000a900473ffffffffffffffffffffffffffffffffffffffff16908060060154908060070160009054906101000a900460ff1690806008015490806009015490508a565b61069481610c89565b600061069f82610fa8565b905060006106de7f0000000000000000000000000000000000000000000000000000000000000000838560e00151866101000151876101200151611025565b9050600073ffffffffffffffffffffffffffffffffffffffff168173ffffffffffffffffffffffffffffffffffffffff161415801561074c5750826000015173ffffffffffffffffffffffffffffffffffffffff168173ffffffffffffffffffffffffffffffffffffffff16145b61078b576040517f08c379a0000000000000000000000000000000000000000000000000000000008152600401610782906118e6565b60405180910390fd5b600073ffffffffffffffffffffffffffffffffffffffff166004600084815260200190815260200160002060000160009054906101000a900473ffffffffffffffffffffffffffffffffffffffff1673ffffffffffffffffffffffffffffffffffffffff1614610830576040517f08c379a000000000000000000000000000000000000000000000000000000000815260040161082790611866565b60405180910390fd5b826004600084815260200190815260200160002060008201518160000160006101000a81548173ffffffffffffffffffffffffffffffffffffffff021916908373ffffffffffffffffffffffffffffffffffffffff16021790555060208201518160010160006101000a81548173ffffffffffffffffffffffffffffffffffffffff021916908373ffffffffffffffffffffffffffffffffffffffff16021790555060408201518160020160006101000a81548173ffffffffffffffffffffffffffffffffffffffff021916908373ffffffffffffffffffffffffffffffffffffffff160217905550606082015181600301556080820151816004015560a08201518160050160006101000a81548173ffffffffffffffffffffffffffffffffffffffff021916908373ffffffffffffffffffffffffffffffffffffffff16021790555060c0820151816006015560e08201518160070160006101000a81548160ff021916908360ff16021790555061010082015181600801556101208201518160090155905050600082908060018154018082558091505060019003906000526020600020016000909190919091505560016000846000015173ffffffffffffffffffffffffffffffffffffffff1673ffffffffffffffffffffffffffffffffffffffff16815260200190815260200160002082908060018154018082558091505060019003906000526020600020016000909190919091505560026000846020015173ffffffffffffffffffffffffffffffffffffffff1673ffffffffffffffffffffffffffffffffffffffff16815260200190815260200160002082908060018154018082558091505060019003906000526020600020016000909190919091505560036000846040015173ffffffffffffffffffffffffffffffffffffffff1673ffffffffffffffffffffffffffffffffffffffff168152602001908152602001600020829080600181540180825580915050600190039060005260206000200160009091909190915055817f918554b6bd6e2895ce6553de5de0e1a69db5289aa0e4fe193a0dcd1f1434747760405160405180910390a2505050565b6060610bb883836000805480602002602001604051908101604052809291908181526020018280548015610ba457602002820191906000526020600020905b815481526020019060010190808311610b90575b5050505050610bc09092919063ffffffff16565b905092915050565b60608167ffffffffffffffff81118015610bd957600080fd5b50604051908082528060200260200182016040528015610c085781602001602082028036833780820191505090505b50905060005b82811015610c81578451818486020110610c43576000801b828281518110610c3257fe5b602002602001018181525050610c74565b84818486020181518110610c5357fe5b6020026020010151828281518110610c6757fe5b6020026020010181815250505b8080600101915050610c0e565b509392505050565b600073ffffffffffffffffffffffffffffffffffffffff16816000015173ffffffffffffffffffffffffffffffffffffffff161415610cfd576040517f08c379a0000000000000000000000000000000000000000000000000000000008152600401610cf4906118c6565b60405180910390fd5b600073ffffffffffffffffffffffffffffffffffffffff16816020015173ffffffffffffffffffffffffffffffffffffffff161415610d71576040517f08c379a0000000000000000000000000000000000000000000000000000000008152600401610d6890611986565b60405180910390fd5b600073ffffffffffffffffffffffffffffffffffffffff16816040015173ffffffffffffffffffffffffffffffffffffffff161415610de5576040517f08c379a0000000000000000000000000000000000000000000000000000000008152600401610ddc906118a6565b60405180910390fd5b806040015173ffffffffffffffffffffffffffffffffffffffff16816020015173ffffffffffffffffffffffffffffffffffffffff161415610e5c576040517f08c379a0000000000000000000000000000000000000000000000000000000008152600401610e5390611926565b60405180910390fd5b6000816060015111610ea3576040517f08c379a0000000000000000000000000000000000000000000000000000000008152600401610e9a90611966565b60405180910390fd5b6000816080015111610eea576040517f08c379a0000000000000000000000000000000000000000000000000000000008152600401610ee190611906565b60405180910390fd5b600073ffffffffffffffffffffffffffffffffffffffff168160a0015173ffffffffffffffffffffffffffffffffffffffff161415610f5e576040517f08c379a0000000000000000000000000000000000000000000000000000000008152600401610f5590611886565b60405180910390fd5b60008160c0015111610fa5576040517f08c379a0000000000000000000000000000000000000000000000000000000008152600401610f9c90611946565b60405180910390fd5b50565b60007f7c228c78bd055996a44b5046fb56fa7c28c66bce92d9dc584f742b2cd76a140f60001b826000015183602001518460400151856060015186608001518760a001518860c001516040516020016110089897969594939291906117a3565b604051602081830303815290604052805190602001209050919050565b600080868660405160200161103b929190611693565b604051602081830303815290604052805190602001209050600181868686604051600081526020016040526040516110769493929190611821565b6020604051602081039080840390855afa158015611098573d6000803e3d6000fd5b5050506020604051035191505095945050505050565b6000813590506110bd81611aa0565b92915050565b6000813590506110d281611ab7565b92915050565b600061014082840312156110eb57600080fd5b6110f66101406119c1565b90506000611106848285016110ae565b600083015250602061111a848285016110ae565b602083015250604061112e848285016110ae565b6040830152506060611142848285016111ca565b6060830152506080611156848285016111ca565b60808301525060a061116a848285016110ae565b60a08301525060c061117e848285016111ca565b60c08301525060e0611192848285016111df565b60e0830152506101006111a7848285016110c3565b610100830152506101206111bd848285016110c3565b6101208301525092915050565b6000813590506111d981611ace565b92915050565b6000813590506111ee81611ae5565b92915050565b60006020828403121561120657600080fd5b6000611214848285016110ae565b91505092915050565b60008060006060848603121561123257600080fd5b6000611240868287016110ae565b9350506020611251868287016111ca565b9250506040611262868287016111ca565b9150509250925092565b60006020828403121561127e57600080fd5b600061128c848285016110c3565b91505092915050565b600061014082840312156112a857600080fd5b60006112b6848285016110d8565b91505092915050565b600080604083850312156112d257600080fd5b60006112e0858286016111ca565b92505060206112f1858286016111ca565b9150509250929050565b60006113078383611380565b60208301905092915050565b61131c81611a43565b82525050565b600061132d826119fe565b6113378185611a16565b9350611342836119ee565b8060005b8381101561137357815161135a88826112fb565b975061136583611a09565b925050600181019050611346565b5085935050505092915050565b61138981611a55565b82525050565b61139881611a55565b82525050565b6113af6113aa82611a55565b611a96565b82525050565b60006113c2600c83611a27565b91507f6f726465722d65786973747300000000000000000000000000000000000000006000830152602082019050919050565b6000611402601183611a27565b91507f696e76616c69642d726563697069656e740000000000000000000000000000006000830152602082019050919050565b6000611442601083611a27565b91507f696e76616c69642d746f2d746f6b656e000000000000000000000000000000006000830152602082019050919050565b6000611482600283611a38565b91507f19010000000000000000000000000000000000000000000000000000000000006000830152600282019050919050565b60006114c2600d83611a27565b91507f696e76616c69642d6d616b6572000000000000000000000000000000000000006000830152602082019050919050565b6000611502601183611a27565b91507f696e76616c69642d7369676e61747572650000000000000000000000000000006000830152602082019050919050565b6000611542601683611a27565b91507f696e76616c69642d616d6f756e742d6f75742d6d696e000000000000000000006000830152602082019050919050565b6000611582601083611a27565b91507f6475706c69636174652d746f6b656e73000000000000000000000000000000006000830152602082019050919050565b60006115c2601083611a27565b91507f696e76616c69642d646561646c696e65000000000000000000000000000000006000830152602082019050919050565b6000611602601183611a27565b91507f696e76616c69642d616d6f756e742d696e0000000000000000000000000000006000830152602082019050919050565b6000611642601283611a27565b91507f696e76616c69642d66726f6d2d746f6b656e00000000000000000000000000006000830152602082019050919050565b61167e81611a7f565b82525050565b61168d81611a89565b82525050565b600061169e82611475565b91506116aa828561139e565b6020820191506116ba828461139e565b6020820191508190509392505050565b6000610140820190506116e0600083018d611313565b6116ed602083018c611313565b6116fa604083018b611313565b611707606083018a611675565b6117146080830189611675565b61172160a0830188611313565b61172e60c0830187611675565b61173b60e0830186611684565b61174961010083018561138f565b61175761012083018461138f565b9b9a5050505050505050505050565b600060208201905081810360008301526117808184611322565b905092915050565b600060208201905061179d600083018461138f565b92915050565b6000610100820190506117b9600083018b61138f565b6117c6602083018a611313565b6117d36040830189611313565b6117e06060830188611313565b6117ed6080830187611675565b6117fa60a0830186611675565b61180760c0830185611313565b61181460e0830184611675565b9998505050505050505050565b6000608082019050611836600083018761138f565b6118436020830186611684565b611850604083018561138f565b61185d606083018461138f565b95945050505050565b6000602082019050818103600083015261187f816113b5565b9050919050565b6000602082019050818103600083015261189f816113f5565b9050919050565b600060208201905081810360008301526118bf81611435565b9050919050565b600060208201905081810360008301526118df816114b5565b9050919050565b600060208201905081810360008301526118ff816114f5565b9050919050565b6000602082019050818103600083015261191f81611535565b9050919050565b6000602082019050818103600083015261193f81611575565b9050919050565b6000602082019050818103600083015261195f816115b5565b9050919050565b6000602082019050818103600083015261197f816115f5565b9050919050565b6000602082019050818103600083015261199f81611635565b9050919050565b60006020820190506119bb6000830184611675565b92915050565b6000604051905081810181811067ffffffffffffffff821117156119e457600080fd5b8060405250919050565b6000819050602082019050919050565b600081519050919050565b6000602082019050919050565b600082825260208201905092915050565b600082825260208201905092915050565b600081905092915050565b6000611a4e82611a5f565b9050919050565b6000819050919050565b600073ffffffffffffffffffffffffffffffffffffffff82169050919050565b6000819050919050565b600060ff82169050919050565b6000819050919050565b611aa981611a43565b8114611ab457600080fd5b50565b611ac081611a55565b8114611acb57600080fd5b50565b611ad781611a7f565b8114611ae257600080fd5b50565b611aee81611a89565b8114611af957600080fd5b5056fea2646970667358221220de110b740bd971822012ae2a44a012ae5d3092979a272cdd4c8450cfae3d226164736f6c634300060c0033",
  "immutableReferences": {
    "19": [
      {
        "length": 32,
        "start": 982
      },
      {
        "length": 32,
        "start": 1704
      }
    ]
  },
  "source": "// SPDX-License-Identifier: MIT\n\npragma solidity =0.6.12;\npragma experimental ABIEncoderV2;\n\nimport \"@sushiswap/core/contracts/uniswapv2/interfaces/IERC20.sol\";\nimport \"./libraries/Orders.sol\";\nimport \"./libraries/EIP712.sol\";\nimport \"./libraries/Bytes32Pagination.sol\";\n\ncontract OrderBook {\n    using Orders for Orders.Order;\n    using Bytes32Pagination for bytes32[];\n\n    event OrderCreated(bytes32 indexed hash);\n\n    // solhint-disable-next-line var-name-mixedcase\n    bytes32 public immutable DOMAIN_SEPARATOR;\n\n    // Array of hashes of all orders\n    bytes32[] internal _allHashes;\n    // Address of order maker => hashes (orders)\n    mapping(address => bytes32[]) internal _hashesOfMaker;\n    // Address of fromToken => hashes (orders)\n    mapping(address => bytes32[]) internal _hashesOfFromToken;\n    // Address of toToken => hashes (orders)\n    mapping(address => bytes32[]) internal _hashesOfToToken;\n    // Hash of an order => the order and its data\n    mapping(bytes32 => Orders.Order) public orderOfHash;\n\n    constructor() public {\n        uint256 chainId;\n        assembly {\n            chainId := chainid()\n        }\n        DOMAIN_SEPARATOR = keccak256(\n            abi.encode(\n                keccak256(\"EIP712Domain(string name,string version,uint256 chainId,address verifyingContract)\"),\n                keccak256(\"OrderBook\"),\n                keccak256(\"1\"),\n                chainId,\n                address(this)\n            )\n        );\n    }\n\n    // Returns the number of orders of a maker\n    function numberOfHashesOfMaker(address maker) public view returns (uint256) {\n        return _hashesOfMaker[maker].length;\n    }\n\n    // Return the number of orders where fromToken is the origin token\n    function numberOfHashesOfFromToken(address fromToken) public view returns (uint256) {\n        return _hashesOfFromToken[fromToken].length;\n    }\n\n    // Return the number of orders where toToken is the target token\n    function numberOfHashesOfToToken(address toToken) public view returns (uint256) {\n        return _hashesOfToToken[toToken].length;\n    }\n\n    // Returns the number of all orders\n    function numberOfAllHashes() public view returns (uint256) {\n        return _allHashes.length;\n    }\n\n    // Returns an array of hashes of orders of a maker\n    function hashesOfMaker(\n        address maker,\n        uint256 page,\n        uint256 limit\n    ) public view returns (bytes32[] memory) {\n        return _hashesOfMaker[maker].paginate(page, limit);\n    }\n\n    // Returns an array of hashes of orders where fromToken is the origin token\n    function hashesOfFromToken(\n        address fromToken,\n        uint256 page,\n        uint256 limit\n    ) public view returns (bytes32[] memory) {\n        return _hashesOfFromToken[fromToken].paginate(page, limit);\n    }\n\n    // Returns an array of hashes of orders where toToken is the target token\n    function hashesOfToToken(\n        address toToken,\n        uint256 page,\n        uint256 limit\n    ) public view returns (bytes32[] memory) {\n        return _hashesOfToToken[toToken].paginate(page, limit);\n    }\n\n    // Return an array of all hashes\n    function allHashes(uint256 page, uint256 limit) public view returns (bytes32[] memory) {\n        return _allHashes.paginate(page, limit);\n    }\n\n    // Creates an order\n    function createOrder(Orders.Order memory order) public {\n        order.validate();\n\n        bytes32 hash = order.hash();\n        address signer = EIP712.recover(DOMAIN_SEPARATOR, hash, order.v, order.r, order.s);\n        require(signer != address(0) && signer == order.maker, \"invalid-signature\");\n\n        require(orderOfHash[hash].maker == address(0), \"order-exists\");\n        orderOfHash[hash] = order;\n\n        _allHashes.push(hash);\n        _hashesOfMaker[order.maker].push(hash);\n        _hashesOfFromToken[order.fromToken].push(hash);\n        _hashesOfToToken[order.toToken].push(hash);\n\n        emit OrderCreated(hash);\n    }\n}\n",
  "sourcePath": "/Users/nguyentien/Documents/GitHub/sushiswap-settlement/contracts/OrderBook.sol",
  "compiler": {
    "name": "solc",
    "version": "0.6.12+commit.27d51765.Emscripten.clang"
  },
  "schemaVersion": "3.3.4",
  "updatedAt": "2021-04-07T10:28:05.893Z",
  "devdoc": {
    "kind": "dev",
    "methods": {},
    "version": 1
  },
  "userdoc": {
    "kind": "user",
    "methods": {},
    "version": 1
  }
}