{
  "contractName": "Orders",
  "abi": [
    {
      "inputs": [],
      "name": "ORDER_TYPEHASH",
      "outputs": [
        {
          "internalType": "bytes32",
          "name": "",
          "type": "bytes32"
        }
      ],
      "stateMutability": "view",
      "type": "function"
    }
  ],
  "bytecode": "0x60aa610024600b82828239805160001a607314601757fe5b30600052607381538281f3fe730000000000000000000000000000000000000000301460806040526004361060335760003560e01c8063f973a209146038575b600080fd5b603e6050565b60408051918252519081900360200190f35b7f7c228c78bd055996a44b5046fb56fa7c28c66bce92d9dc584f742b2cd76a140f8156fea2646970667358221220f9cb4d6a085c03708d1f27ebad7fd017f63b2852e0d372f804f3f5e23a6c9d3364736f6c634300060c0033",
  "immutableReferences": {},
  "source": "// SPDX-License-Identifier: MIT\n\npragma solidity =0.6.12;\n\nlibrary Orders {\n    // keccak256(\"Order(address maker,address fromToken,address toToken,uint256 amountIn,uint256 amountOutMin,address recipient,uint256 deadline)\")\n    bytes32 public constant ORDER_TYPEHASH = 0x7c228c78bd055996a44b5046fb56fa7c28c66bce92d9dc584f742b2cd76a140f;\n\n    struct Order {\n        address maker;\n        address fromToken;\n        address toToken;\n        uint256 amountIn;\n        uint256 amountOutMin;\n        address recipient;\n        uint256 deadline;\n        uint8 v;\n        bytes32 r;\n        bytes32 s;\n    }\n\n    function hash(Order memory order) internal pure returns (bytes32) {\n        return\n            keccak256(\n                abi.encode(\n                    ORDER_TYPEHASH,\n                    order.maker,\n                    order.fromToken,\n                    order.toToken,\n                    order.amountIn,\n                    order.amountOutMin,\n                    order.recipient,\n                    order.deadline\n                )\n            );\n    }\n\n    function validate(Order memory order) internal {\n        require(order.maker != address(0), \"invalid-maker\");\n        require(order.fromToken != address(0), \"invalid-from-token\");\n        require(order.toToken != address(0), \"invalid-to-token\");\n        require(order.fromToken != order.toToken, \"duplicate-tokens\");\n        require(order.amountIn > 0, \"invalid-amount-in\");\n        require(order.amountOutMin > 0, \"invalid-amount-out-min\");\n        require(order.recipient != address(0), \"invalid-recipient\");\n        require(order.deadline > 0, \"invalid-deadline\");\n    }\n}\n",
  "sourcePath": "/Users/nguyentien/Documents/GitHub/sushiswap-settlement/contracts/libraries/Orders.sol",
  "compiler": {
    "name": "solc",
    "version": "0.6.12+commit.27d51765.Emscripten.clang"
  },
  "schemaVersion": "3.3.4",
  "updatedAt": "2021-03-22T07:58:52.962Z",
  "devdoc": {
    "kind": "dev",
    "methods": {},
    "version": 1
  },
  "userdoc": {
    "kind": "user",
    "methods": {},
    "version": 1
  }
}