{
  "contractName": "SettlementCaller",
  "abi": [
    {
      "inputs": [
        {
          "internalType": "contract ISettlement",
          "name": "_settlement",
          "type": "address"
        }
      ],
      "stateMutability": "nonpayable",
      "type": "constructor"
    },
    {
      "inputs": [
        {
          "components": [
            {
              "internalType": "bytes32",
              "name": "hash",
              "type": "bytes32"
            },
            {
              "internalType": "address",
              "name": "maker",
              "type": "address"
            },
            {
              "internalType": "address",
              "name": "fromToken",
              "type": "address"
            },
            {
              "internalType": "address",
              "name": "toToken",
              "type": "address"
            },
            {
              "internalType": "uint256",
              "name": "amountIn",
              "type": "uint256"
            },
            {
              "internalType": "uint256",
              "name": "amountOutMin",
              "type": "uint256"
            },
            {
              "internalType": "address",
              "name": "recipient",
              "type": "address"
            },
            {
              "internalType": "uint256",
              "name": "deadline",
              "type": "uint256"
            },
            {
              "internalType": "uint8",
              "name": "v",
              "type": "uint8"
            },
            {
              "internalType": "bytes32",
              "name": "r",
              "type": "bytes32"
            },
            {
              "internalType": "bytes32",
              "name": "s",
              "type": "bytes32"
            },
            {
              "internalType": "uint256",
              "name": "amountToFillIn",
              "type": "uint256"
            },
            {
              "internalType": "address[]",
              "name": "path",
              "type": "address[]"
            }
          ],
          "internalType": "struct ISettlement.Order",
          "name": "args",
          "type": "tuple"
        }
      ],
      "name": "fillOrder",
      "outputs": [
        {
          "internalType": "uint256",
          "name": "amountOut",
          "type": "uint256"
        }
      ],
      "stateMutability": "nonpayable",
      "type": "function"
    }
  ],
  "bytecode": "0x608060405234801561001057600080fd5b506040516107643803806107648339818101604052810190610032919061008d565b806000806101000a81548173ffffffffffffffffffffffffffffffffffffffff021916908373ffffffffffffffffffffffffffffffffffffffff16021790555050610111565b600081519050610087816100fa565b92915050565b60006020828403121561009f57600080fd5b60006100ad84828501610078565b91505092915050565b60006100c1826100da565b9050919050565b60006100d3826100b6565b9050919050565b600073ffffffffffffffffffffffffffffffffffffffff82169050919050565b610103816100c8565b811461010e57600080fd5b50565b610644806101206000396000f3fe608060405234801561001057600080fd5b506004361061002b5760003560e01c8063a5b4c3bf14610030575b600080fd5b61004a6004803603810190610045919061019a565b610060565b6040516100579190610469565b60405180910390f35b60008060009054906101000a900473ffffffffffffffffffffffffffffffffffffffff1673ffffffffffffffffffffffffffffffffffffffff1663a5b4c3bf836040518263ffffffff1660e01b81526004016100bc9190610447565b602060405180830381600087803b1580156100d657600080fd5b505af11580156100ea573d6000803e3d6000fd5b505050506040513d601f19601f8201168201806040525081019061010e91906101db565b9050919050565b600081359050610124816105b2565b92915050565b600081359050610139816105c9565b92915050565b60006101a0828403121561015257600080fd5b81905092915050565b60008135905061016a816105e0565b92915050565b60008151905061017f816105e0565b92915050565b600081359050610194816105f7565b92915050565b6000602082840312156101ac57600080fd5b600082013567ffffffffffffffff8111156101c657600080fd5b6101d28482850161013f565b91505092915050565b6000602082840312156101ed57600080fd5b60006101fb84828501610170565b91505092915050565b6000610210838361021c565b60208301905092915050565b6102258161055f565b82525050565b6000610237838561049b565b935061024282610484565b8060005b8581101561027b5761025882846104ac565b6102628882610204565b975061026d8361048e565b925050600181019050610246565b5085925050509392505050565b61029181610571565b82525050565b60006101a083016102ab600084018461051a565b6102b86000860182610288565b506102c660208401846104ac565b6102d3602086018261021c565b506102e160408401846104ac565b6102ee604086018261021c565b506102fc60608401846104ac565b610309606086018261021c565b506103176080840184610531565b610324608086018261041a565b5061033260a0840184610531565b61033f60a086018261041a565b5061034d60c08401846104ac565b61035a60c086018261021c565b5061036860e0840184610531565b61037560e086018261041a565b50610384610100840184610548565b610392610100860182610438565b506103a161012084018461051a565b6103af610120860182610288565b506103be61014084018461051a565b6103cc610140860182610288565b506103db610160840184610531565b6103e961016086018261041a565b506103f86101808401846104c3565b85830361018087015261040c83828461022b565b925050508091505092915050565b6104238161059b565b82525050565b6104328161059b565b82525050565b610441816105a5565b82525050565b600060208201905081810360008301526104618184610297565b905092915050565b600060208201905061047e6000830184610429565b92915050565b6000819050919050565b6000602082019050919050565b600082825260208201905092915050565b60006104bb6020840184610115565b905092915050565b600080833560016020038436030381126104dc57600080fd5b83810192508235915060208301925067ffffffffffffffff82111561050057600080fd5b60208202360384131561051257600080fd5b509250929050565b6000610529602084018461012a565b905092915050565b6000610540602084018461015b565b905092915050565b60006105576020840184610185565b905092915050565b600061056a8261057b565b9050919050565b6000819050919050565b600073ffffffffffffffffffffffffffffffffffffffff82169050919050565b6000819050919050565b600060ff82169050919050565b6105bb8161055f565b81146105c657600080fd5b50565b6105d281610571565b81146105dd57600080fd5b50565b6105e98161059b565b81146105f457600080fd5b50565b610600816105a5565b811461060b57600080fd5b5056fea2646970667358221220ff2b60dd2ea5b2a3682608b1e9537bca611cbb55f6556e499e6cdf1940eb757c64736f6c634300060c0033",
  "immutableReferences": {},
  "source": "// SPDX-License-Identifier: MIT\n\npragma solidity =0.6.12;\npragma experimental ABIEncoderV2;\n\nimport \"../interfaces/ISettlement.sol\";\n\ncontract SettlementCaller {\n    ISettlement settlement;\n\n    constructor(ISettlement _settlement) public {\n        settlement = _settlement;\n    }\n\n    function fillOrder(ISettlement.Order calldata args) external returns (uint256 amountOut) {\n        return settlement.fillOrder(args);\n    }\n}\n",
  "sourcePath": "/Users/nguyentien/Documents/GitHub/sushiswap-settlement/contracts/mock/SettlementCaller.sol",
  "compiler": {
    "name": "solc",
    "version": "0.6.12+commit.27d51765.Emscripten.clang"
  },
  "schemaVersion": "3.3.4",
  "updatedAt": "2021-04-07T10:28:05.902Z",
  "devdoc": {
    "kind": "dev",
    "methods": {},
    "version": 1
  },
  "userdoc": {
    "kind": "user",
    "methods": {},
    "version": 1
  }
}