{
  "contractName": "Settlement",
  "abi": [
    {
      "inputs": [
        {
          "internalType": "uint256",
          "name": "_orderBookChainId",
          "type": "uint256"
        },
        {
          "internalType": "address",
          "name": "_orderBookAddress",
          "type": "address"
        },
        {
          "internalType": "address",
          "name": "_factory",
          "type": "address"
        }
      ],
      "stateMutability": "nonpayable",
      "type": "constructor"
    },
    {
      "anonymous": false,
      "inputs": [
        {
          "indexed": true,
          "internalType": "bytes32",
          "name": "hash",
          "type": "bytes32"
        },
        {
          "indexed": true,
          "internalType": "address",
          "name": "recipient",
          "type": "address"
        },
        {
          "indexed": false,
          "internalType": "uint256",
          "name": "amount",
          "type": "uint256"
        }
      ],
      "name": "FeeSplitTransferred",
      "type": "event"
    },
    {
      "anonymous": false,
      "inputs": [
        {
          "indexed": true,
          "internalType": "bytes32",
          "name": "hash",
          "type": "bytes32"
        },
        {
          "indexed": true,
          "internalType": "address",
          "name": "recipient",
          "type": "address"
        },
        {
          "indexed": false,
          "internalType": "uint256",
          "name": "amount",
          "type": "uint256"
        }
      ],
      "name": "FeeTransferred",
      "type": "event"
    },
    {
      "anonymous": false,
      "inputs": [
        {
          "indexed": true,
          "internalType": "bytes32",
          "name": "hash",
          "type": "bytes32"
        }
      ],
      "name": "OrderCanceled",
      "type": "event"
    },
    {
      "anonymous": false,
      "inputs": [
        {
          "indexed": true,
          "internalType": "bytes32",
          "name": "hash",
          "type": "bytes32"
        },
        {
          "indexed": false,
          "internalType": "uint256",
          "name": "amountIn",
          "type": "uint256"
        },
        {
          "indexed": false,
          "internalType": "uint256",
          "name": "amountOut",
          "type": "uint256"
        }
      ],
      "name": "OrderFilled",
      "type": "event"
    },
    {
      "inputs": [],
      "name": "DOMAIN_SEPARATOR",
      "outputs": [
        {
          "internalType": "bytes32",
          "name": "",
          "type": "bytes32"
        }
      ],
      "stateMutability": "view",
      "type": "function"
    },
    {
      "inputs": [
        {
          "internalType": "address",
          "name": "",
          "type": "address"
        },
        {
          "internalType": "bytes32",
          "name": "",
          "type": "bytes32"
        }
      ],
      "name": "canceledOfHash",
      "outputs": [
        {
          "internalType": "bool",
          "name": "",
          "type": "bool"
        }
      ],
      "stateMutability": "view",
      "type": "function"
    },
    {
      "inputs": [],
      "name": "factory",
      "outputs": [
        {
          "internalType": "address",
          "name": "",
          "type": "address"
        }
      ],
      "stateMutability": "view",
      "type": "function"
    },
    {
      "inputs": [
        {
          "internalType": "bytes32",
          "name": "",
          "type": "bytes32"
        }
      ],
      "name": "filledAmountInOfHash",
      "outputs": [
        {
          "internalType": "uint256",
          "name": "",
          "type": "uint256"
        }
      ],
      "stateMutability": "view",
      "type": "function"
    },
    {
      "inputs": [],
      "name": "orderBookAddress",
      "outputs": [
        {
          "internalType": "address",
          "name": "",
          "type": "address"
        }
      ],
      "stateMutability": "view",
      "type": "function"
    },
    {
      "inputs": [],
      "name": "orderBookChainId",
      "outputs": [
        {
          "internalType": "uint256",
          "name": "",
          "type": "uint256"
        }
      ],
      "stateMutability": "view",
      "type": "function"
    },
    {
      "inputs": [
        {
          "components": [
            {
              "components": [
                {
                  "internalType": "address",
                  "name": "maker",
                  "type": "address"
                },
                {
                  "internalType": "address",
                  "name": "fromToken",
                  "type": "address"
                },
                {
                  "internalType": "address",
                  "name": "toToken",
                  "type": "address"
                },
                {
                  "internalType": "uint256",
                  "name": "amountIn",
                  "type": "uint256"
                },
                {
                  "internalType": "uint256",
                  "name": "amountOutMin",
                  "type": "uint256"
                },
                {
                  "internalType": "address",
                  "name": "recipient",
                  "type": "address"
                },
                {
                  "internalType": "uint256",
                  "name": "deadline",
                  "type": "uint256"
                },
                {
                  "internalType": "uint8",
                  "name": "v",
                  "type": "uint8"
                },
                {
                  "internalType": "bytes32",
                  "name": "r",
                  "type": "bytes32"
                },
                {
                  "internalType": "bytes32",
                  "name": "s",
                  "type": "bytes32"
                }
              ],
              "internalType": "struct Orders.Order",
              "name": "order",
              "type": "tuple"
            },
            {
              "internalType": "uint256",
              "name": "amountToFillIn",
              "type": "uint256"
            },
            {
              "internalType": "address[]",
              "name": "path",
              "type": "address[]"
            }
          ],
          "internalType": "struct ISettlement.FillOrderArgs",
          "name": "args",
          "type": "tuple"
        }
      ],
      "name": "fillOrder",
      "outputs": [
        {
          "internalType": "uint256",
          "name": "amountOut",
          "type": "uint256"
        }
      ],
      "stateMutability": "nonpayable",
      "type": "function"
    },
    {
      "inputs": [
        {
          "components": [
            {
              "components": [
                {
                  "internalType": "address",
                  "name": "maker",
                  "type": "address"
                },
                {
                  "internalType": "address",
                  "name": "fromToken",
                  "type": "address"
                },
                {
                  "internalType": "address",
                  "name": "toToken",
                  "type": "address"
                },
                {
                  "internalType": "uint256",
                  "name": "amountIn",
                  "type": "uint256"
                },
                {
                  "internalType": "uint256",
                  "name": "amountOutMin",
                  "type": "uint256"
                },
                {
                  "internalType": "address",
                  "name": "recipient",
                  "type": "address"
                },
                {
                  "internalType": "uint256",
                  "name": "deadline",
                  "type": "uint256"
                },
                {
                  "internalType": "uint8",
                  "name": "v",
                  "type": "uint8"
                },
                {
                  "internalType": "bytes32",
                  "name": "r",
                  "type": "bytes32"
                },
                {
                  "internalType": "bytes32",
                  "name": "s",
                  "type": "bytes32"
                }
              ],
              "internalType": "struct Orders.Order",
              "name": "order",
              "type": "tuple"
            },
            {
              "internalType": "uint256",
              "name": "amountToFillIn",
              "type": "uint256"
            },
            {
              "internalType": "address[]",
              "name": "path",
              "type": "address[]"
            }
          ],
          "internalType": "struct ISettlement.FillOrderArgs[]",
          "name": "args",
          "type": "tuple[]"
        }
      ],
      "name": "fillOrders",
      "outputs": [
        {
          "internalType": "uint256[]",
          "name": "amountsOut",
          "type": "uint256[]"
        }
      ],
      "stateMutability": "nonpayable",
      "type": "function"
    },
    {
      "inputs": [
        {
          "internalType": "bytes32",
          "name": "hash",
          "type": "bytes32"
        },
        {
          "internalType": "address",
          "name": "maker",
          "type": "address"
        }
      ],
      "name": "cancelOrder",
      "outputs": [],
      "stateMutability": "nonpayable",
      "type": "function"
    }
  ],
  "bytecode": "0x60c06040523480156200001157600080fd5b50604051620036e2380380620036e2833981810160405281019062000037919062000185565b7f8b73c3c69bb8fe3d512ecc4cf759cc79239f7b179b0ffacaa9a75d522b39400f7f84ec3e40ac87b7e93d40b42ac60cbcf224a757106614dac5eb0cc5fc9be1f03c7fc89efdaa54c0f20c7adf612882df0950f5a951637e0307cdcb4c672f298b8bc68585604051602001620000b29594939291906200020e565b604051602081830303815290604052805190602001206080818152505081600260006101000a81548173ffffffffffffffffffffffffffffffffffffffff021916908373ffffffffffffffffffffffffffffffffffffffff160217905550826003819055508073ffffffffffffffffffffffffffffffffffffffff1660a08173ffffffffffffffffffffffffffffffffffffffff1660601b81525050505050620002e7565b6000815190506200016881620002b3565b92915050565b6000815190506200017f81620002cd565b92915050565b6000806000606084860312156200019b57600080fd5b6000620001ab868287016200016e565b9350506020620001be8682870162000157565b9250506040620001d18682870162000157565b9150509250925092565b620001e6816200026b565b82525050565b620001f7816200027f565b82525050565b6200020881620002a9565b82525050565b600060a082019050620002256000830188620001ec565b620002346020830187620001ec565b620002436040830186620001ec565b620002526060830185620001fd565b620002616080830184620001db565b9695505050505050565b6000620002788262000289565b9050919050565b6000819050919050565b600073ffffffffffffffffffffffffffffffffffffffff82169050919050565b6000819050919050565b620002be816200026b565b8114620002ca57600080fd5b50565b620002d881620002a9565b8114620002e457600080fd5b50565b60805160a05160601c6133b66200032c600039806106ec528061107f52806110a2528061118c528061173f52806117835250806101ee52806103e052506133b66000f3fe608060405234801561001057600080fd5b50600436106100935760003560e01c80639409d870116100665780639409d87014610134578063c172216314610152578063c45a015514610182578063d61aed7a146101a0578063ff3997e5146101bc57610093565b80633644e515146100985780636638df9f146100b6578063685f93bd146100d457806368bce8a214610104575b600080fd5b6100a06101ec565b6040516100ad9190612ca1565b60405180910390f35b6100be610210565b6040516100cb919061307f565b60405180910390f35b6100ee60048036038101906100e991906121db565b610216565b6040516100fb919061307f565b60405180910390f35b61011e60048036038101906101199190612240565b61022e565b60405161012b919061307f565b60405180910390f35b61013c6105c1565b6040516101499190612bc0565b60405180910390f35b61016c60048036038101906101679190612171565b6105e7565b6040516101799190612c64565b60405180910390f35b61018a6106ea565b6040516101979190612bc0565b60405180910390f35b6101ba60048036038101906101b59190612204565b61070e565b005b6101d660048036038101906101d19190612135565b610815565b6040516101e39190612c86565b60405180910390f35b7f000000000000000000000000000000000000000000000000000000000000000081565b60035481565b60016020528060005260406000206000915090505481565b60003273ffffffffffffffffffffffffffffffffffffffff163373ffffffffffffffffffffffffffffffffffffffff161461029e576040517f08c379a000000000000000000000000000000000000000000000000000000000815260040161029590612f5f565b60405180910390fd5b60006102ad8360000151610844565b90506102b983826108c1565b6102c283610a29565b6102d05760009150506105bc565b6000836000015160e0015160ff161480156102f657506000801b83600001516101000151145b801561030d57506000801b83600001516101200151145b156103d95761031a611c1b565b600260009054906101000a900473ffffffffffffffffffffffffffffffffffffffff1673ffffffffffffffffffffffffffffffffffffffff1663bceb45db836040518263ffffffff1660e01b81526004016103759190612ca1565b61014060405180830381600087803b15801561039057600080fd5b505af11580156103a4573d6000803e3d6000fd5b505050506040513d601f19601f820116820180604052508101906103c89190612281565b90506103d381610c5e565b506104d5565b60006104227f000000000000000000000000000000000000000000000000000000000000000083866000015160e001518760000151610100015188600001516101200151610f7d565b9050600073ffffffffffffffffffffffffffffffffffffffff168173ffffffffffffffffffffffffffffffffffffffff1614158015610494575083600001516000015173ffffffffffffffffffffffffffffffffffffffff168173ffffffffffffffffffffffffffffffffffffffff16145b6104d3576040517f08c379a00000000000000000000000000000000000000000000000000000000081526004016104ca90612e3f565b60405180910390fd5b505b60008360000151606001516104ff856020015186600001516080015161100690919063ffffffff16565b8161050657fe5b04905061052e8460000151600001518560200151838760400151886000015160a00151611076565b925060008311156105b9576105638460200151600160008581526020019081526020016000205461121090919063ffffffff16565b6001600084815260200190815260200160002081905550817fb38583f2adb435cac858db9d3e8d3ca952ccb32307e2f3d0053b415d2d2934818560200151856040516105b092919061309a565b60405180910390a25b50505b919050565b600260009054906101000a900473ffffffffffffffffffffffffffffffffffffffff1681565b60606000825167ffffffffffffffff8111801561060357600080fd5b506040519080825280602002602001820160405280156106325781602001602082028036833780820191505090505b50915060005b83518110156106a35761065d84828151811061065057fe5b602002602001015161022e565b83828151811061066957fe5b602002602001018181525050600083828151811061068357fe5b6020026020010151111561069657600191505b8080600101915050610638565b50806106e4576040517f08c379a00000000000000000000000000000000000000000000000000000000081526004016106db90612f7f565b60405180910390fd5b50919050565b7f000000000000000000000000000000000000000000000000000000000000000081565b8073ffffffffffffffffffffffffffffffffffffffff163373ffffffffffffffffffffffffffffffffffffffff161461077c576040517f08c379a000000000000000000000000000000000000000000000000000000000815260040161077390612dbf565b60405180910390fd5b60016000803373ffffffffffffffffffffffffffffffffffffffff1673ffffffffffffffffffffffffffffffffffffffff168152602001908152602001600020600084815260200190815260200160002060006101000a81548160ff021916908315150217905550817f30ad15c39984aa59d60d4089cbbbaa503c4c9e0fa0e3bdf62a5bab180fcb974d60405160405180910390a25050565b60006020528160005260406000206020528060005260406000206000915091509054906101000a900460ff1681565b60007f7c228c78bd055996a44b5046fb56fa7c28c66bce92d9dc584f742b2cd76a140f60001b826000015183602001518460400151856060015186608001518760a001518860c001516040516020016108a4989796959493929190612cbc565b604051602081830303815290604052805190602001209050919050565b42826000015160c00151101561090c576040517f08c379a000000000000000000000000000000000000000000000000000000000815260040161090390612f1f565b60405180910390fd5b60008083600001516000015173ffffffffffffffffffffffffffffffffffffffff1673ffffffffffffffffffffffffffffffffffffffff168152602001908152602001600020600082815260200190815260200160002060009054906101000a900460ff16156109b1576040517f08c379a00000000000000000000000000000000000000000000000000000000081526004016109a890612ddf565b60405180910390fd5b8160000151606001516109e48360200151600160008581526020019081526020016000205461121090919063ffffffff16565b1115610a25576040517f08c379a0000000000000000000000000000000000000000000000000000000008152600401610a1c9061305f565b60405180910390fd5b5050565b60008073ffffffffffffffffffffffffffffffffffffffff1682600001516000015173ffffffffffffffffffffffffffffffffffffffff1614158015610aa45750600073ffffffffffffffffffffffffffffffffffffffff1682600001516020015173ffffffffffffffffffffffffffffffffffffffff1614155b8015610ae55750600073ffffffffffffffffffffffffffffffffffffffff1682600001516040015173ffffffffffffffffffffffffffffffffffffffff1614155b8015610b2d575081600001516040015173ffffffffffffffffffffffffffffffffffffffff1682600001516020015173ffffffffffffffffffffffffffffffffffffffff1614155b8015610b425750600082600001516060015114155b8015610b575750600082600001516080015114155b8015610b6c57506000826000015160c0015114155b8015610b80575042826000015160c0015110155b8015610b90575060008260200151115b8015610ba25750600282604001515110155b8015610bf957508160400151600081518110610bba57fe5b602002602001015173ffffffffffffffffffffffffffffffffffffffff1682600001516020015173ffffffffffffffffffffffffffffffffffffffff16145b8015610c575750816040015160018360400151510381518110610c1857fe5b602002602001015173ffffffffffffffffffffffffffffffffffffffff1682600001516040015173ffffffffffffffffffffffffffffffffffffffff16145b9050919050565b600073ffffffffffffffffffffffffffffffffffffffff16816000015173ffffffffffffffffffffffffffffffffffffffff161415610cd2576040517f08c379a0000000000000000000000000000000000000000000000000000000008152600401610cc990612e1f565b60405180910390fd5b600073ffffffffffffffffffffffffffffffffffffffff16816020015173ffffffffffffffffffffffffffffffffffffffff161415610d46576040517f08c379a0000000000000000000000000000000000000000000000000000000008152600401610d3d90612fff565b60405180910390fd5b600073ffffffffffffffffffffffffffffffffffffffff16816040015173ffffffffffffffffffffffffffffffffffffffff161415610dba576040517f08c379a0000000000000000000000000000000000000000000000000000000008152600401610db190612d9f565b60405180910390fd5b806040015173ffffffffffffffffffffffffffffffffffffffff16816020015173ffffffffffffffffffffffffffffffffffffffff161415610e31576040517f08c379a0000000000000000000000000000000000000000000000000000000008152600401610e2890612f3f565b60405180910390fd5b6000816060015111610e78576040517f08c379a0000000000000000000000000000000000000000000000000000000008152600401610e6f90612fdf565b60405180910390fd5b6000816080015111610ebf576040517f08c379a0000000000000000000000000000000000000000000000000000000008152600401610eb690612ebf565b60405180910390fd5b600073ffffffffffffffffffffffffffffffffffffffff168160a0015173ffffffffffffffffffffffffffffffffffffffff161415610f33576040517f08c379a0000000000000000000000000000000000000000000000000000000008152600401610f2a90612d7f565b60405180910390fd5b60008160c0015111610f7a576040517f08c379a0000000000000000000000000000000000000000000000000000000008152600401610f7190612f9f565b60405180910390fd5b50565b6000808686604051602001610f93929190612b89565b60405160208183030381529060405280519060200120905060018186868660405160008152602001604052604051610fce9493929190612d3a565b6020604051602081039080840390855afa158015610ff0573d6000803e3d6000fd5b5050506020604051035191505095945050505050565b6000808314156110195760009050611070565b600082840290508284828161102a57fe5b041461106b576040517f08c379a000000000000000000000000000000000000000000000000000000000815260040161106290612eff565b60405180910390fd5b809150505b92915050565b600060606111437f000000000000000000000000000000000000000000000000000000000000000087867f000000000000000000000000000000000000000000000000000000000000000073ffffffffffffffffffffffffffffffffffffffff166354cf2aeb6040518163ffffffff1660e01b815260040160206040518083038186803b15801561110657600080fd5b505afa15801561111a573d6000803e3d6000fd5b505050506040513d601f19601f8201168201806040525081019061113e91906122fa565b611265565b9050848160018351038151811061115657fe5b6020026020010151101561116e576000915050611207565b6111e08460008151811061117e57fe5b6020026020010151886111da7f0000000000000000000000000000000000000000000000000000000000000000886000815181106111b857fe5b6020026020010151896001815181106111cd57fe5b60200260200101516114a6565b8961153c565b6111eb818585611676565b806001825103815181106111fb57fe5b60200260200101519150505b95945050505050565b60008082840190508381101561125b576040517f08c379a000000000000000000000000000000000000000000000000000000000815260040161125290612dff565b60405180910390fd5b8091505092915050565b60606002835110156112ac576040517f08c379a00000000000000000000000000000000000000000000000000000000081526004016112a390612e9f565b60405180910390fd5b825167ffffffffffffffff811180156112c457600080fd5b506040519080825280602002602001820160405280156112f35781602001602082028036833780820191505090505b509050838160008151811061130457fe5b60200260200101818152505060005b600184510381101561149d576000806113568887858151811061133257fe5b602002602001015188600187018151811061134957fe5b602002602001015161187e565b9150915061137984848151811061136957fe5b6020026020010151838388611996565b84600185018151811061138857fe5b6020026020010181815250506114738873ffffffffffffffffffffffffffffffffffffffff1663fc42b58f8860018701815181106113c257fe5b60200260200101518760018801815181106113d957fe5b60200260200101516040518363ffffffff1660e01b81526004016113fe929190612c3b565b60206040518083038186803b15801561141657600080fd5b505afa15801561142a573d6000803e3d6000fd5b505050506040513d601f19601f8201168201806040525081019061144e91906122fa565b85600186018151811061145d57fe5b6020026020010151611a9d90919063ffffffff16565b84600185018151811061148257fe5b60200260200101818152505050508080600101915050611313565b50949350505050565b60008373ffffffffffffffffffffffffffffffffffffffff1663e6a4390584846040518363ffffffff1660e01b81526004016114e3929190612bdb565b60206040518083038186803b1580156114fb57600080fd5b505afa15801561150f573d6000803e3d6000fd5b505050506040513d601f19601f82011682018060405250810190611533919061210c565b90509392505050565b600060608573ffffffffffffffffffffffffffffffffffffffff166323b872dd86868660405160240161157193929190612c04565b6040516020818303038152906040529060e01b6020820180517bffffffffffffffffffffffffffffffffffffffffffffffffffffffff83818316178352505050506040516115bf9190612b72565b6000604051808303816000865af19150503d80600081146115fc576040519150601f19603f3d011682016040523d82523d6000602084013e611601565b606091505b509150915081801561162f575060008151148061162e57508080602001905181019061162d91906121b2565b5b5b61166e576040517f08c379a00000000000000000000000000000000000000000000000000000000081526004016116659061301f565b60405180910390fd5b505050505050565b60005b60018351038110156118785760008084838151811061169457fe5b60200260200101518560018501815181106116ab57fe5b60200260200101519150915060006116c38383611aed565b50905060008760018601815181106116d757fe5b602002602001015190506000808373ffffffffffffffffffffffffffffffffffffffff168673ffffffffffffffffffffffffffffffffffffffff161461171f57826000611723565b6000835b91509150600060028a5103881061173a578861177c565b61177b7f0000000000000000000000000000000000000000000000000000000000000000878c60028c018151811061176e57fe5b60200260200101516114a6565b5b90506117a97f000000000000000000000000000000000000000000000000000000000000000088886114a6565b73ffffffffffffffffffffffffffffffffffffffff1663022c0d9f848484600067ffffffffffffffff811180156117df57600080fd5b506040519080825280601f01601f1916602001820160405280156118125781602001600182028036833780820191505090505b506040518563ffffffff1660e01b815260040161183294939291906130c3565b600060405180830381600087803b15801561184c57600080fd5b505af1158015611860573d6000803e3d6000fd5b50505050505050505050508080600101915050611679565b50505050565b600080600061188d8585611aed565b509050600061189d8787876114a6565b90506000808273ffffffffffffffffffffffffffffffffffffffff16630902f1ac6040518163ffffffff1660e01b815260040160606040518083038186803b1580156118e857600080fd5b505afa1580156118fc573d6000803e3d6000fd5b505050506040513d601f19601f8201168201806040525081019061192091906122ab565b506dffffffffffffffffffffffffffff1691506dffffffffffffffffffffffffffff1691508373ffffffffffffffffffffffffffffffffffffffff168873ffffffffffffffffffffffffffffffffffffffff161461197f578082611982565b81815b809650819750505050505050935093915050565b60008085116119da576040517f08c379a00000000000000000000000000000000000000000000000000000000081526004016119d19061303f565b60405180910390fd5b6000841180156119ea5750600083115b611a29576040517f08c379a0000000000000000000000000000000000000000000000000000000008152600401611a2090612edf565b60405180910390fd5b6000611a42836103e8038761100690919063ffffffff16565b90506000611a59858361100690919063ffffffff16565b90506000611a8483611a766103e88a61100690919063ffffffff16565b61121090919063ffffffff16565b9050808281611a8f57fe5b049350505050949350505050565b600082821115611ae2576040517f08c379a0000000000000000000000000000000000000000000000000000000008152600401611ad990612e7f565b60405180910390fd5b818303905092915050565b6000808273ffffffffffffffffffffffffffffffffffffffff168473ffffffffffffffffffffffffffffffffffffffff161415611b5f576040517f08c379a0000000000000000000000000000000000000000000000000000000008152600401611b5690612e5f565b60405180910390fd5b8273ffffffffffffffffffffffffffffffffffffffff168473ffffffffffffffffffffffffffffffffffffffff1610611b99578284611b9c565b83835b8092508193505050600073ffffffffffffffffffffffffffffffffffffffff168273ffffffffffffffffffffffffffffffffffffffff161415611c14576040517f08c379a0000000000000000000000000000000000000000000000000000000008152600401611c0b90612fbf565b60405180910390fd5b9250929050565b604051806101400160405280600073ffffffffffffffffffffffffffffffffffffffff168152602001600073ffffffffffffffffffffffffffffffffffffffff168152602001600073ffffffffffffffffffffffffffffffffffffffff1681526020016000815260200160008152602001600073ffffffffffffffffffffffffffffffffffffffff16815260200160008152602001600060ff16815260200160008019168152602001600080191681525090565b600081359050611cde816132df565b92915050565b600081519050611cf3816132df565b92915050565b600082601f830112611d0a57600080fd5b8135611d1d611d188261313c565b61310f565b91508181835260208401935060208101905083856020840282011115611d4257600080fd5b60005b83811015611d725781611d588882611ccf565b845260208401935060208301925050600181019050611d45565b5050505092915050565b600082601f830112611d8d57600080fd5b8135611da0611d9b82613164565b61310f565b9150818183526020840193506020810190508360005b83811015611de65781358601611dcc8882611e2f565b845260208401935060208301925050600181019050611db6565b5050505092915050565b600081519050611dff816132f6565b92915050565b600081359050611e148161330d565b92915050565b600081519050611e298161330d565b92915050565b60006101808284031215611e4257600080fd5b611e4c606061310f565b90506000611e5c84828501611eaa565b600083015250610140611e71848285016120a3565b60208301525061016082013567ffffffffffffffff811115611e9257600080fd5b611e9e84828501611cf9565b60408301525092915050565b60006101408284031215611ebd57600080fd5b611ec861014061310f565b90506000611ed884828501611ccf565b6000830152506020611eec84828501611ccf565b6020830152506040611f0084828501611ccf565b6040830152506060611f14848285016120a3565b6060830152506080611f28848285016120a3565b60808301525060a0611f3c84828501611ccf565b60a08301525060c0611f50848285016120a3565b60c08301525060e0611f64848285016120e2565b60e083015250610100611f7984828501611e05565b61010083015250610120611f8f84828501611e05565b6101208301525092915050565b60006101408284031215611faf57600080fd5b611fba61014061310f565b90506000611fca84828501611ce4565b6000830152506020611fde84828501611ce4565b6020830152506040611ff284828501611ce4565b6040830152506060612006848285016120b8565b606083015250608061201a848285016120b8565b60808301525060a061202e84828501611ce4565b60a08301525060c0612042848285016120b8565b60c08301525060e0612056848285016120f7565b60e08301525061010061206b84828501611e1a565b6101008301525061012061208184828501611e1a565b6101208301525092915050565b60008151905061209d81613324565b92915050565b6000813590506120b28161333b565b92915050565b6000815190506120c78161333b565b92915050565b6000815190506120dc81613352565b92915050565b6000813590506120f181613369565b92915050565b60008151905061210681613369565b92915050565b60006020828403121561211e57600080fd5b600061212c84828501611ce4565b91505092915050565b6000806040838503121561214857600080fd5b600061215685828601611ccf565b925050602061216785828601611e05565b9150509250929050565b60006020828403121561218357600080fd5b600082013567ffffffffffffffff81111561219d57600080fd5b6121a984828501611d7c565b91505092915050565b6000602082840312156121c457600080fd5b60006121d284828501611df0565b91505092915050565b6000602082840312156121ed57600080fd5b60006121fb84828501611e05565b91505092915050565b6000806040838503121561221757600080fd5b600061222585828601611e05565b925050602061223685828601611ccf565b9150509250929050565b60006020828403121561225257600080fd5b600082013567ffffffffffffffff81111561226c57600080fd5b61227884828501611e2f565b91505092915050565b6000610140828403121561229457600080fd5b60006122a284828501611f9c565b91505092915050565b6000806000606084860312156122c057600080fd5b60006122ce8682870161208e565b93505060206122df8682870161208e565b92505060406122f0868287016120cd565b9150509250925092565b60006020828403121561230c57600080fd5b600061231a848285016120b8565b91505092915050565b600061232f8383612b45565b60208301905092915050565b61234481613208565b82525050565b60006123558261319c565b61235f81856131bf565b935061236a8361318c565b8060005b8381101561239b5781516123828882612323565b975061238d836131b2565b92505060018101905061236e565b5085935050505092915050565b6123b18161321a565b82525050565b6123c081613226565b82525050565b6123d76123d282613226565b6132c4565b82525050565b60006123e8826131a7565b6123f281856131d0565b9350612402818560208601613291565b61240b816132ce565b840191505092915050565b6000612421826131a7565b61242b81856131e1565b935061243b818560208601613291565b80840191505092915050565b60006124546011836131ec565b91507f696e76616c69642d726563697069656e740000000000000000000000000000006000830152602082019050919050565b60006124946010836131ec565b91507f696e76616c69642d746f2d746f6b656e000000000000000000000000000000006000830152602082019050919050565b60006124d46013836131ec565b91507f6e6f742d63616c6c65642d62792d6d616b6572000000000000000000000000006000830152602082019050919050565b6000612514600e836131ec565b91507f6f726465722d63616e63656c65640000000000000000000000000000000000006000830152602082019050919050565b60006125546002836131fd565b91507f19010000000000000000000000000000000000000000000000000000000000006000830152600282019050919050565b6000612594601b836131ec565b91507f536166654d6174683a206164646974696f6e206f766572666c6f7700000000006000830152602082019050919050565b60006125d4600d836131ec565b91507f696e76616c69642d6d616b6572000000000000000000000000000000000000006000830152602082019050919050565b60006126146011836131ec565b91507f696e76616c69642d7369676e61747572650000000000000000000000000000006000830152602082019050919050565b60006126546025836131ec565b91507f556e697377617056324c6962726172793a204944454e544943414c5f4144445260008301527f45535345530000000000000000000000000000000000000000000000000000006020830152604082019050919050565b60006126ba601e836131ec565b91507f536166654d6174683a207375627472616374696f6e206f766572666c6f7700006000830152602082019050919050565b60006126fa601e836131ec565b91507f556e697377617056324c6962726172793a20494e56414c49445f5041544800006000830152602082019050919050565b600061273a6016836131ec565b91507f696e76616c69642d616d6f756e742d6f75742d6d696e000000000000000000006000830152602082019050919050565b600061277a6028836131ec565b91507f556e697377617056324c6962726172793a20494e53554646494349454e545f4c60008301527f49515549444954590000000000000000000000000000000000000000000000006020830152604082019050919050565b60006127e06021836131ec565b91507f536166654d6174683a206d756c7469706c69636174696f6e206f766572666c6f60008301527f77000000000000000000000000000000000000000000000000000000000000006020830152604082019050919050565b6000612846600d836131ec565b91507f6f726465722d65787069726564000000000000000000000000000000000000006000830152602082019050919050565b60006128866010836131ec565b91507f6475706c69636174652d746f6b656e73000000000000000000000000000000006000830152602082019050919050565b60006128c66012836131ec565b91507f63616c6c65642d62792d636f6e747261637400000000000000000000000000006000830152602082019050919050565b6000612906600f836131ec565b91507f6e6f2d6f726465722d66696c6c656400000000000000000000000000000000006000830152602082019050919050565b60006129466010836131ec565b91507f696e76616c69642d646561646c696e65000000000000000000000000000000006000830152602082019050919050565b6000612986601e836131ec565b91507f556e697377617056324c6962726172793a205a45524f5f4144445245535300006000830152602082019050919050565b60006129c66011836131ec565b91507f696e76616c69642d616d6f756e742d696e0000000000000000000000000000006000830152602082019050919050565b6000612a066012836131ec565b91507f696e76616c69642d66726f6d2d746f6b656e00000000000000000000000000006000830152602082019050919050565b6000612a466024836131ec565b91507f5472616e7366657248656c7065723a205452414e534645525f46524f4d5f464160008301527f494c4544000000000000000000000000000000000000000000000000000000006020830152604082019050919050565b6000612aac602b836131ec565b91507f556e697377617056324c6962726172793a20494e53554646494349454e545f4960008301527f4e5055545f414d4f554e540000000000000000000000000000000000000000006020830152604082019050919050565b6000612b12600e836131ec565b91507f616c72656164792d66696c6c65640000000000000000000000000000000000006000830152602082019050919050565b612b4e8161326a565b82525050565b612b5d8161326a565b82525050565b612b6c81613284565b82525050565b6000612b7e8284612416565b915081905092915050565b6000612b9482612547565b9150612ba082856123c6565b602082019150612bb082846123c6565b6020820191508190509392505050565b6000602082019050612bd5600083018461233b565b92915050565b6000604082019050612bf0600083018561233b565b612bfd602083018461233b565b9392505050565b6000606082019050612c19600083018661233b565b612c26602083018561233b565b612c336040830184612b54565b949350505050565b6000604082019050612c50600083018561233b565b612c5d6020830184612b54565b9392505050565b60006020820190508181036000830152612c7e818461234a565b905092915050565b6000602082019050612c9b60008301846123a8565b92915050565b6000602082019050612cb660008301846123b7565b92915050565b600061010082019050612cd2600083018b6123b7565b612cdf602083018a61233b565b612cec604083018961233b565b612cf9606083018861233b565b612d066080830187612b54565b612d1360a0830186612b54565b612d2060c083018561233b565b612d2d60e0830184612b54565b9998505050505050505050565b6000608082019050612d4f60008301876123b7565b612d5c6020830186612b63565b612d6960408301856123b7565b612d7660608301846123b7565b95945050505050565b60006020820190508181036000830152612d9881612447565b9050919050565b60006020820190508181036000830152612db881612487565b9050919050565b60006020820190508181036000830152612dd8816124c7565b9050919050565b60006020820190508181036000830152612df881612507565b9050919050565b60006020820190508181036000830152612e1881612587565b9050919050565b60006020820190508181036000830152612e38816125c7565b9050919050565b60006020820190508181036000830152612e5881612607565b9050919050565b60006020820190508181036000830152612e7881612647565b9050919050565b60006020820190508181036000830152612e98816126ad565b9050919050565b60006020820190508181036000830152612eb8816126ed565b9050919050565b60006020820190508181036000830152612ed88161272d565b9050919050565b60006020820190508181036000830152612ef88161276d565b9050919050565b60006020820190508181036000830152612f18816127d3565b9050919050565b60006020820190508181036000830152612f3881612839565b9050919050565b60006020820190508181036000830152612f5881612879565b9050919050565b60006020820190508181036000830152612f78816128b9565b9050919050565b60006020820190508181036000830152612f98816128f9565b9050919050565b60006020820190508181036000830152612fb881612939565b9050919050565b60006020820190508181036000830152612fd881612979565b9050919050565b60006020820190508181036000830152612ff8816129b9565b9050919050565b60006020820190508181036000830152613018816129f9565b9050919050565b6000602082019050818103600083015261303881612a39565b9050919050565b6000602082019050818103600083015261305881612a9f565b9050919050565b6000602082019050818103600083015261307881612b05565b9050919050565b60006020820190506130946000830184612b54565b92915050565b60006040820190506130af6000830185612b54565b6130bc6020830184612b54565b9392505050565b60006080820190506130d86000830187612b54565b6130e56020830186612b54565b6130f2604083018561233b565b818103606083015261310481846123dd565b905095945050505050565b6000604051905081810181811067ffffffffffffffff8211171561313257600080fd5b8060405250919050565b600067ffffffffffffffff82111561315357600080fd5b602082029050602081019050919050565b600067ffffffffffffffff82111561317b57600080fd5b602082029050602081019050919050565b6000819050602082019050919050565b600081519050919050565b600081519050919050565b6000602082019050919050565b600082825260208201905092915050565b600082825260208201905092915050565b600081905092915050565b600082825260208201905092915050565b600081905092915050565b60006132138261324a565b9050919050565b60008115159050919050565b6000819050919050565b60006dffffffffffffffffffffffffffff82169050919050565b600073ffffffffffffffffffffffffffffffffffffffff82169050919050565b6000819050919050565b600063ffffffff82169050919050565b600060ff82169050919050565b60005b838110156132af578082015181840152602081019050613294565b838111156132be576000848401525b50505050565b6000819050919050565b6000601f19601f8301169050919050565b6132e881613208565b81146132f357600080fd5b50565b6132ff8161321a565b811461330a57600080fd5b50565b61331681613226565b811461332157600080fd5b50565b61332d81613230565b811461333857600080fd5b50565b6133448161326a565b811461334f57600080fd5b50565b61335b81613274565b811461336657600080fd5b50565b61337281613284565b811461337d57600080fd5b5056fea2646970667358221220519952a40b92b796d2cf7d5855c8e32b4d7d3371a6bc16e2be2c46f2d0eb539364736f6c634300060c0033",
  "immutableReferences": {
    "24": [
      {
        "length": 32,
        "start": 494
      },
      {
        "length": 32,
        "start": 992
      }
    ],
    "36": [
      {
        "length": 32,
        "start": 1772
      },
      {
        "length": 32,
        "start": 4223
      },
      {
        "length": 32,
        "start": 4258
      },
      {
        "length": 32,
        "start": 4492
      },
      {
        "length": 32,
        "start": 5951
      },
      {
        "length": 32,
        "start": 6019
      }
    ]
  },
  "source": "// SPDX-License-Identifier: MIT\n\npragma solidity =0.6.12;\npragma experimental ABIEncoderV2;\n\nimport \"./uniswapv2/libraries/TransferHelper.sol\";\nimport \"./uniswapv2/libraries/UniswapV2Library.sol\";\n\nimport \"./interfaces/ISettlement.sol\";\nimport \"./interfaces/IOrderBook.sol\";\nimport \"./libraries/Orders.sol\";\nimport \"./libraries/EIP712.sol\";\nimport \"./libraries/Bytes32Pagination.sol\";\nimport \"./libraries/Verifier.sol\";\n\ncontract Settlement is ISettlement {\n    using SafeMath for uint256;\n    using Orders for Orders.Order;\n    using Bytes32Pagination for bytes32[];\n\n    // solhint-disable-next-line var-name-mixedcase\n    bytes32 public immutable DOMAIN_SEPARATOR;\n\n    // Hash of an order => if canceled\n    mapping(address => mapping(bytes32 => bool)) public canceledOfHash;\n    // Hash of an order => filledAmountIn\n    mapping(bytes32 => uint256) public filledAmountInOfHash;\n\n    address public immutable factory;\n\n    address public orderBookAddress;\n    uint256 public orderBookChainId;\n\n    constructor(\n        uint256 _orderBookChainId,\n        address _orderBookAddress,\n        address _factory\n    ) public {\n        DOMAIN_SEPARATOR = keccak256(\n            abi.encode(\n                keccak256(\"EIP712Domain(string name,string version,uint256 chainId,address verifyingContract)\"),\n                keccak256(\"OrderBook\"),\n                keccak256(\"1\"),\n                _orderBookChainId,\n                _orderBookAddress\n            )\n        );\n        orderBookAddress = _orderBookAddress;\n        orderBookChainId = _orderBookChainId;\n\n        factory = _factory;\n    }\n\n    // Fills an order\n    function fillOrder(FillOrderArgs memory args) public override returns (uint256 amountOut) {\n       // voids flashloan attack vectors\n        // solhint-disable-next-line avoid-tx-origin\n        require(msg.sender == tx.origin, \"called-by-contract\");\n\n        // Check if the order is canceled / already fully filled\n        bytes32 hash = args.order.hash();\n        _validateStatus(args, hash);\n\n        // Check if the order is valid\n        if (!_validateArgs(args)) {\n            return 0;\n        }\n\n        if (args.order.v == 0 && bytes32(args.order.r) == bytes32(0) && bytes32(args.order.s) == bytes32(0)) {\n            Orders.Order memory _order = IOrderBook(orderBookAddress).orderOfHash(hash);\n            _order.validate();\n        }\n        else {\n            address signer = EIP712.recover(DOMAIN_SEPARATOR, hash, args.order.v, args.order.r, args.order.s);\n            require(signer != address(0) && signer == args.order.maker, \"invalid-signature\");\n        }\n\n        // Calculates amountOutMin\n        uint256 amountOutMin = (args.order.amountOutMin.mul(args.amountToFillIn) / args.order.amountIn);\n\n        // Requires args.amountToFillIn to have already been approved to this\n        amountOut = _swapExactTokensForTokens(\n            args.order.maker,\n            args.amountToFillIn,\n            amountOutMin,\n            args.path,\n            args.order.recipient\n        );\n\n        if (amountOut > 0) {\n            // This line is free from reentrancy issues since UniswapV2Pair prevents from them\n            filledAmountInOfHash[hash] = filledAmountInOfHash[hash].add(args.amountToFillIn);\n\n            emit OrderFilled(hash, args.amountToFillIn, amountOut);\n        }\n    }\n\n    // Checks if an order is valid - if it contains all the information required\n    function _validateArgs(FillOrderArgs memory args) internal view returns (bool) {\n        return\n            args.order.maker != address(0) &&\n            args.order.fromToken != address(0) &&\n            args.order.toToken != address(0) &&\n            args.order.fromToken != args.order.toToken &&\n            args.order.amountIn != uint256(0) &&\n            args.order.amountOutMin != uint256(0) &&\n            args.order.deadline != uint256(0) &&\n            args.order.deadline >= block.timestamp &&\n            args.amountToFillIn > 0 &&\n            args.path.length >= 2 &&\n            args.order.fromToken == args.path[0] &&\n            args.order.toToken == args.path[args.path.length - 1];\n    }\n\n    function _validateStatus(FillOrderArgs memory args, bytes32 hash) internal view {\n        require(args.order.deadline >= block.timestamp, \"order-expired\");\n        require(!canceledOfHash[args.order.maker][hash], \"order-canceled\");\n        require(filledAmountInOfHash[hash].add(args.amountToFillIn) <= args.order.amountIn, \"already-filled\");\n    }\n\n    // Swaps an exact amount of tokens for another token through the path passed as an argument\n    // Returns the amount of the final token\n\n    function _swapExactTokensForTokens(\n        address from,\n        uint256 amountIn,\n        uint256 amountOutMin,\n        address[] memory path,\n        address to\n    ) internal returns (uint256 amountOut) {\n        uint256[] memory amounts = UniswapV2Library.getAmountsOut(factory, amountIn, path, IUniswapV2Factory(factory).swapFee());\n        if (amounts[amounts.length - 1] < amountOutMin) {\n            return 0;\n        }\n        TransferHelper.safeTransferFrom(\n            path[0],\n            from,\n            UniswapV2Library.pairFor(factory, path[0], path[1]),\n            amountIn\n        );\n        _swap(amounts, path, to);\n        amountOut = amounts[amounts.length - 1];\n    }\n\n    // requires the initial amount to have already been sent to the first pair\n    function _swap(\n        uint256[] memory amounts,\n        address[] memory path,\n        address _to\n    ) internal virtual {\n        for (uint256 i; i < path.length - 1; i++) {\n            (address input, address output) = (path[i], path[i + 1]);\n            (address token0, ) = UniswapV2Library.sortTokens(input, output);\n            uint256 amountOut = amounts[i + 1];\n            (uint256 amount0Out, uint256 amount1Out) = input == token0\n                ? (uint256(0), amountOut)\n                : (amountOut, uint256(0));\n            address to = i < path.length - 2 ? UniswapV2Library.pairFor(factory, output, path[i + 2]) : _to;\n            IUniswapV2Pair(UniswapV2Library.pairFor(factory, input, output)).swap(\n                amount0Out,\n                amount1Out,\n                to,\n                new bytes(0)\n            );\n        }\n    }\n\n    // Fills multiple orders passed as an array\n    function fillOrders(FillOrderArgs[] memory args)\n        public\n        override\n        returns (uint256[] memory amountsOut)\n    {\n        bool filled = false;\n        amountsOut = new uint256[](args.length);\n        for (uint256 i = 0; i < args.length; i++) {\n            // Returns zero of the order wasn't filled\n            amountsOut[i] = fillOrder(args[i]);\n            if (amountsOut[i] > 0) {\n                // At least one order was filled\n                filled = true;\n            }\n        }\n        require(filled, \"no-order-filled\");\n    }\n\n    // Cancels an order, has to been called by order maker\n    function cancelOrder(bytes32 hash, address maker) public override {\n        require(msg.sender == maker, \"not-called-by-maker\");\n        canceledOfHash[msg.sender][hash] = true;\n\n        emit OrderCanceled(hash);\n    }\n}\n",
  "sourcePath": "/Users/tung/work/luaswap-settlement/contracts/Settlement.sol",
  "compiler": {
    "name": "solc",
    "version": "0.6.12+commit.27d51765.Emscripten.clang"
  },
  "schemaVersion": "3.3.3",
  "updatedAt": "2021-06-07T04:35:53.903Z",
  "devdoc": {
    "kind": "dev",
    "methods": {},
    "version": 1
  },
  "userdoc": {
    "kind": "user",
    "methods": {},
    "version": 1
  }
}