{
  "contractName": "Settlement",
  "abi": [
    {
      "inputs": [
        {
          "internalType": "uint256",
          "name": "orderBookChainId",
          "type": "uint256"
        },
        {
          "internalType": "address",
          "name": "orderBookAddress",
          "type": "address"
        },
        {
          "internalType": "address",
          "name": "_factory",
          "type": "address"
        }
      ],
      "stateMutability": "nonpayable",
      "type": "constructor"
    },
    {
      "anonymous": false,
      "inputs": [
        {
          "indexed": true,
          "internalType": "bytes32",
          "name": "hash",
          "type": "bytes32"
        },
        {
          "indexed": true,
          "internalType": "address",
          "name": "recipient",
          "type": "address"
        },
        {
          "indexed": false,
          "internalType": "uint256",
          "name": "amount",
          "type": "uint256"
        }
      ],
      "name": "FeeSplitTransferred",
      "type": "event"
    },
    {
      "anonymous": false,
      "inputs": [
        {
          "indexed": true,
          "internalType": "bytes32",
          "name": "hash",
          "type": "bytes32"
        },
        {
          "indexed": true,
          "internalType": "address",
          "name": "recipient",
          "type": "address"
        },
        {
          "indexed": false,
          "internalType": "uint256",
          "name": "amount",
          "type": "uint256"
        }
      ],
      "name": "FeeTransferred",
      "type": "event"
    },
    {
      "anonymous": false,
      "inputs": [
        {
          "indexed": true,
          "internalType": "bytes32",
          "name": "hash",
          "type": "bytes32"
        }
      ],
      "name": "OrderCanceled",
      "type": "event"
    },
    {
      "anonymous": false,
      "inputs": [
        {
          "indexed": true,
          "internalType": "bytes32",
          "name": "hash",
          "type": "bytes32"
        },
        {
          "indexed": false,
          "internalType": "uint256",
          "name": "amountIn",
          "type": "uint256"
        },
        {
          "indexed": false,
          "internalType": "uint256",
          "name": "amountOut",
          "type": "uint256"
        }
      ],
      "name": "OrderFilled",
      "type": "event"
    },
    {
      "inputs": [],
      "name": "DOMAIN_SEPARATOR",
      "outputs": [
        {
          "internalType": "bytes32",
          "name": "",
          "type": "bytes32"
        }
      ],
      "stateMutability": "view",
      "type": "function"
    },
    {
      "inputs": [
        {
          "internalType": "address",
          "name": "",
          "type": "address"
        },
        {
          "internalType": "bytes32",
          "name": "",
          "type": "bytes32"
        }
      ],
      "name": "canceledOfHash",
      "outputs": [
        {
          "internalType": "bool",
          "name": "",
          "type": "bool"
        }
      ],
      "stateMutability": "view",
      "type": "function"
    },
    {
      "inputs": [],
      "name": "factory",
      "outputs": [
        {
          "internalType": "address",
          "name": "",
          "type": "address"
        }
      ],
      "stateMutability": "view",
      "type": "function"
    },
    {
      "inputs": [
        {
          "internalType": "bytes32",
          "name": "",
          "type": "bytes32"
        }
      ],
      "name": "filledAmountInOfHash",
      "outputs": [
        {
          "internalType": "uint256",
          "name": "",
          "type": "uint256"
        }
      ],
      "stateMutability": "view",
      "type": "function"
    },
    {
      "inputs": [
        {
          "components": [
            {
              "internalType": "bytes32",
              "name": "hash",
              "type": "bytes32"
            },
            {
              "internalType": "address",
              "name": "maker",
              "type": "address"
            },
            {
              "internalType": "address",
              "name": "fromToken",
              "type": "address"
            },
            {
              "internalType": "address",
              "name": "toToken",
              "type": "address"
            },
            {
              "internalType": "uint256",
              "name": "amountIn",
              "type": "uint256"
            },
            {
              "internalType": "uint256",
              "name": "amountOutMin",
              "type": "uint256"
            },
            {
              "internalType": "address",
              "name": "recipient",
              "type": "address"
            },
            {
              "internalType": "uint256",
              "name": "deadline",
              "type": "uint256"
            },
            {
              "internalType": "uint8",
              "name": "v",
              "type": "uint8"
            },
            {
              "internalType": "bytes32",
              "name": "r",
              "type": "bytes32"
            },
            {
              "internalType": "bytes32",
              "name": "s",
              "type": "bytes32"
            },
            {
              "internalType": "uint256",
              "name": "amountToFillIn",
              "type": "uint256"
            },
            {
              "internalType": "address[]",
              "name": "path",
              "type": "address[]"
            }
          ],
          "internalType": "struct ISettlement.Order",
          "name": "args",
          "type": "tuple"
        }
      ],
      "name": "fillOrder",
      "outputs": [
        {
          "internalType": "uint256",
          "name": "amountOut",
          "type": "uint256"
        }
      ],
      "stateMutability": "nonpayable",
      "type": "function"
    },
    {
      "inputs": [
        {
          "internalType": "bytes32",
          "name": "hash",
          "type": "bytes32"
        }
      ],
      "name": "cancelOrder",
      "outputs": [],
      "stateMutability": "nonpayable",
      "type": "function"
    }
  ],
  "bytecode": "0x60c06040523480156200001157600080fd5b50604051620022953803806200229583398181016040528101906200003791906200013d565b7f8b73c3c69bb8fe3d512ecc4cf759cc79239f7b179b0ffacaa9a75d522b39400f7f84ec3e40ac87b7e93d40b42ac60cbcf224a757106614dac5eb0cc5fc9be1f03c7fc89efdaa54c0f20c7adf612882df0950f5a951637e0307cdcb4c672f298b8bc68585604051602001620000b2959493929190620001c6565b60405160208183030381529060405280519060200120608081815250508073ffffffffffffffffffffffffffffffffffffffff1660a08173ffffffffffffffffffffffffffffffffffffffff1660601b815250505050506200029f565b60008151905062000120816200026b565b92915050565b600081519050620001378162000285565b92915050565b6000806000606084860312156200015357600080fd5b6000620001638682870162000126565b935050602062000176868287016200010f565b925050604062000189868287016200010f565b9150509250925092565b6200019e8162000223565b82525050565b620001af8162000237565b82525050565b620001c08162000261565b82525050565b600060a082019050620001dd6000830188620001a4565b620001ec6020830187620001a4565b620001fb6040830186620001a4565b6200020a6060830185620001b5565b62000219608083018462000193565b9695505050505050565b6000620002308262000241565b9050919050565b6000819050919050565b600073ffffffffffffffffffffffffffffffffffffffff82169050919050565b6000819050919050565b620002768162000223565b81146200028257600080fd5b50565b620002908162000261565b81146200029c57600080fd5b50565b60805160a05160601c611fb6620002df60003980610469528061070b528061077a5280610c085280610c4c52508061015152806102ad5250611fb66000f3fe608060405234801561001057600080fd5b50600436106100625760003560e01c80633644e51514610067578063685f93bd146100855780637489ec23146100b5578063a5b4c3bf146100d1578063c45a015514610101578063ff3997e51461011f575b600080fd5b61006f61014f565b60405161007c9190611aaf565b60405180910390f35b61009f600480360381019061009a9190611352565b610173565b6040516100ac9190611caf565b60405180910390f35b6100cf60048036038101906100ca9190611352565b61018b565b005b6100eb60048036038101906100e6919061137b565b610223565b6040516100f89190611caf565b60405180910390f35b610109610467565b6040516101169190611a42565b60405180910390f35b610139600480360381019061013491906112ed565b61048b565b6040516101469190611a94565b60405180910390f35b7f000000000000000000000000000000000000000000000000000000000000000081565b60016020528060005260406000206000915090505481565b60016000803373ffffffffffffffffffffffffffffffffffffffff1673ffffffffffffffffffffffffffffffffffffffff168152602001908152602001600020600083815260200190815260200160002060006101000a81548160ff021916908315150217905550807f30ad15c39984aa59d60d4089cbbbaa503c4c9e0fa0e3bdf62a5bab180fcb974d60405160405180910390a250565b60003273ffffffffffffffffffffffffffffffffffffffff163373ffffffffffffffffffffffffffffffffffffffff1614610293576040517f08c379a000000000000000000000000000000000000000000000000000000000815260040161028a90611c0f565b60405180910390fd5b6000826000015190506102a683826104ba565b60006102e47f000000000000000000000000000000000000000000000000000000000000000083866101000151876101200151886101400151610617565b9050600073ffffffffffffffffffffffffffffffffffffffff168173ffffffffffffffffffffffffffffffffffffffff16141580156103525750836020015173ffffffffffffffffffffffffffffffffffffffff168173ffffffffffffffffffffffffffffffffffffffff16145b610391576040517f08c379a000000000000000000000000000000000000000000000000000000000815260040161038890611b6f565b60405180910390fd5b600084608001516103b48661016001518760a001516106a090919063ffffffff16565b816103bb57fe5b0490506103dc85602001518660800151838861018001518960c00151610702565b935061040985610160015160016000868152602001908152602001600020546107fe90919063ffffffff16565b6001600085815260200190815260200160002081905550827fb38583f2adb435cac858db9d3e8d3ca952ccb32307e2f3d0053b415d2d29348186610160015183604051610457929190611cca565b60405180910390a2505050919050565b7f000000000000000000000000000000000000000000000000000000000000000081565b60006020528160005260406000206020528060005260406000206000915091509054906101000a900460ff1681565b428260e001511015610501576040517f08c379a00000000000000000000000000000000000000000000000000000000081526004016104f890611bef565b60405180910390fd5b600080836020015173ffffffffffffffffffffffffffffffffffffffff1673ffffffffffffffffffffffffffffffffffffffff168152602001908152602001600020600082815260200190815260200160002060009054906101000a900460ff16156105a2576040517f08c379a000000000000000000000000000000000000000000000000000000000815260040161059990611b0f565b60405180910390fd5b81608001516105d283610160015160016000858152602001908152602001600020546107fe90919063ffffffff16565b1115610613576040517f08c379a000000000000000000000000000000000000000000000000000000000815260040161060a90611c8f565b60405180910390fd5b5050565b600080868660405160200161062d9291906119c9565b604051602081830303815290604052805190602001209050600181868686604051600081526020016040526040516106689493929190611aca565b6020604051602081039080840390855afa15801561068a573d6000803e3d6000fd5b5050506020604051035191505095945050505050565b6000808214806106bd57508282838502925082816106ba57fe5b04145b6106fc576040517f08c379a00000000000000000000000000000000000000000000000000000000081526004016106f390611b2f565b60405180910390fd5b92915050565b600060606107317f0000000000000000000000000000000000000000000000000000000000000000878661084e565b9050848160018351038151811061074457fe5b6020026020010151101561075c5760009150506107f5565b6107ce8460008151811061076c57fe5b6020026020010151886107c87f0000000000000000000000000000000000000000000000000000000000000000886000815181106107a657fe5b6020026020010151896001815181106107bb57fe5b6020026020010151610993565b89610a05565b6107d9818585610b3f565b806001825103815181106107e957fe5b60200260200101519150505b95945050505050565b6000828284019150811015610848576040517f08c379a000000000000000000000000000000000000000000000000000000000815260040161083f90611b4f565b60405180910390fd5b92915050565b6060600282511015610895576040517f08c379a000000000000000000000000000000000000000000000000000000000815260040161088c90611baf565b60405180910390fd5b815167ffffffffffffffff811180156108ad57600080fd5b506040519080825280602002602001820160405280156108dc5781602001602082028036833780820191505090505b50905082816000815181106108ed57fe5b60200260200101818152505060005b600183510381101561098b5760008061093f8786858151811061091b57fe5b602002602001015187600187018151811061093257fe5b6020026020010151610d47565b9150915061096184848151811061095257fe5b60200260200101518383610e59565b84600185018151811061097057fe5b602002602001018181525050505080806001019150506108fc565b509392505050565b60008060006109a28585610f5d565b915091508582826040516020016109ba929190611986565b604051602081830303815290604052805190602001206040516020016109e1929190611a00565b6040516020818303038152906040528051906020012060001c925050509392505050565b600060608573ffffffffffffffffffffffffffffffffffffffff166323b872dd868686604051602401610a3a93929190611a5d565b6040516020818303038152906040529060e01b6020820180517bffffffffffffffffffffffffffffffffffffffffffffffffffffffff8381831617835250505050604051610a8891906119b2565b6000604051808303816000865af19150503d8060008114610ac5576040519150601f19603f3d011682016040523d82523d6000602084013e610aca565b606091505b5091509150818015610af85750600081511480610af7575080806020019051810190610af69190611329565b5b5b610b37576040517f08c379a0000000000000000000000000000000000000000000000000000000008152600401610b2e90611c4f565b60405180910390fd5b505050505050565b60005b6001835103811015610d4157600080848381518110610b5d57fe5b6020026020010151856001850181518110610b7457fe5b6020026020010151915091506000610b8c8383610f5d565b5090506000876001860181518110610ba057fe5b602002602001015190506000808373ffffffffffffffffffffffffffffffffffffffff168673ffffffffffffffffffffffffffffffffffffffff1614610be857826000610bec565b6000835b91509150600060028a51038810610c035788610c45565b610c447f0000000000000000000000000000000000000000000000000000000000000000878c60028c0181518110610c3757fe5b6020026020010151610993565b5b9050610c727f00000000000000000000000000000000000000000000000000000000000000008888610993565b73ffffffffffffffffffffffffffffffffffffffff1663022c0d9f848484600067ffffffffffffffff81118015610ca857600080fd5b506040519080825280601f01601f191660200182016040528015610cdb5781602001600182028036833780820191505090505b506040518563ffffffff1660e01b8152600401610cfb9493929190611cf3565b600060405180830381600087803b158015610d1557600080fd5b505af1158015610d29573d6000803e3d6000fd5b50505050505050505050508080600101915050610b42565b50505050565b6000806000610d568585610f5d565b509050600080610d67888888610993565b73ffffffffffffffffffffffffffffffffffffffff16630902f1ac6040518163ffffffff1660e01b815260040160606040518083038186803b158015610dac57600080fd5b505afa158015610dc0573d6000803e3d6000fd5b505050506040513d601f19601f82011682018060405250810190610de491906113bc565b506dffffffffffffffffffffffffffff1691506dffffffffffffffffffffffffffff1691508273ffffffffffffffffffffffffffffffffffffffff168773ffffffffffffffffffffffffffffffffffffffff1614610e43578082610e46565b81815b8095508196505050505050935093915050565b6000808411610e9d576040517f08c379a0000000000000000000000000000000000000000000000000000000008152600401610e9490611c6f565b60405180910390fd5b600083118015610ead5750600082115b610eec576040517f08c379a0000000000000000000000000000000000000000000000000000000008152600401610ee390611bcf565b60405180910390fd5b6000610f036103e5866106a090919063ffffffff16565b90506000610f1a84836106a090919063ffffffff16565b90506000610f4583610f376103e8896106a090919063ffffffff16565b6107fe90919063ffffffff16565b9050808281610f5057fe5b0493505050509392505050565b6000808273ffffffffffffffffffffffffffffffffffffffff168473ffffffffffffffffffffffffffffffffffffffff161415610fcf576040517f08c379a0000000000000000000000000000000000000000000000000000000008152600401610fc690611b8f565b60405180910390fd5b8273ffffffffffffffffffffffffffffffffffffffff168473ffffffffffffffffffffffffffffffffffffffff161061100957828461100c565b83835b8092508193505050600073ffffffffffffffffffffffffffffffffffffffff168273ffffffffffffffffffffffffffffffffffffffff161415611084576040517f08c379a000000000000000000000000000000000000000000000000000000000815260040161107b90611c2f565b60405180910390fd5b9250929050565b60008135905061109a81611edf565b92915050565b600082601f8301126110b157600080fd5b81356110c46110bf82611d6c565b611d3f565b915081818352602084019350602081019050838560208402820111156110e957600080fd5b60005b8381101561111957816110ff888261108b565b8452602084019350602083019250506001810190506110ec565b5050505092915050565b60008151905061113281611ef6565b92915050565b60008135905061114781611f0d565b92915050565b60006101a0828403121561116057600080fd5b61116b6101a0611d3f565b9050600061117b84828501611138565b600083015250602061118f8482850161108b565b60208301525060406111a38482850161108b565b60408301525060606111b78482850161108b565b60608301525060806111cb848285016112ae565b60808301525060a06111df848285016112ae565b60a08301525060c06111f38482850161108b565b60c08301525060e0611207848285016112ae565b60e08301525061010061121c848285016112d8565b6101008301525061012061123284828501611138565b6101208301525061014061124884828501611138565b6101408301525061016061125e848285016112ae565b6101608301525061018082013567ffffffffffffffff81111561128057600080fd5b61128c848285016110a0565b6101808301525092915050565b6000815190506112a881611f24565b92915050565b6000813590506112bd81611f3b565b92915050565b6000815190506112d281611f52565b92915050565b6000813590506112e781611f69565b92915050565b6000806040838503121561130057600080fd5b600061130e8582860161108b565b925050602061131f85828601611138565b9150509250929050565b60006020828403121561133b57600080fd5b600061134984828501611123565b91505092915050565b60006020828403121561136457600080fd5b600061137284828501611138565b91505092915050565b60006020828403121561138d57600080fd5b600082013567ffffffffffffffff8111156113a757600080fd5b6113b38482850161114d565b91505092915050565b6000806000606084860312156113d157600080fd5b60006113df86828701611299565b93505060206113f086828701611299565b9250506040611401868287016112c3565b9150509250925092565b61141481611dd7565b82525050565b61142b61142682611dd7565b611e93565b82525050565b61143a81611de9565b82525050565b61144981611df5565b82525050565b61146061145b82611df5565b611ea5565b82525050565b600061147182611d94565b61147b8185611d9f565b935061148b818560208601611e60565b61149481611ec1565b840191505092915050565b60006114aa82611d94565b6114b48185611db0565b93506114c4818560208601611e60565b80840191505092915050565b60006114dd602083611dcc565b91507fe18a34eb0e04b04f7a0ac29a6e80748dca96319b42c54d679cb821dca90c63036000830152602082019050919050565b600061151d600e83611dbb565b91507f6f726465722d63616e63656c65640000000000000000000000000000000000006000830152602082019050919050565b600061155d601483611dbb565b91507f64732d6d6174682d6d756c2d6f766572666c6f770000000000000000000000006000830152602082019050919050565b600061159d600283611dcc565b91507f19010000000000000000000000000000000000000000000000000000000000006000830152600282019050919050565b60006115dd601483611dbb565b91507f64732d6d6174682d6164642d6f766572666c6f770000000000000000000000006000830152602082019050919050565b600061161d601183611dbb565b91507f696e76616c69642d7369676e61747572650000000000000000000000000000006000830152602082019050919050565b600061165d602583611dbb565b91507f556e697377617056324c6962726172793a204944454e544943414c5f4144445260008301527f45535345530000000000000000000000000000000000000000000000000000006020830152604082019050919050565b60006116c3601e83611dbb565b91507f556e697377617056324c6962726172793a20494e56414c49445f5041544800006000830152602082019050919050565b6000611703602883611dbb565b91507f556e697377617056324c6962726172793a20494e53554646494349454e545f4c60008301527f49515549444954590000000000000000000000000000000000000000000000006020830152604082019050919050565b6000611769600183611dcc565b91507fff000000000000000000000000000000000000000000000000000000000000006000830152600182019050919050565b60006117a9600d83611dbb565b91507f6f726465722d65787069726564000000000000000000000000000000000000006000830152602082019050919050565b60006117e9601283611dbb565b91507f63616c6c65642d62792d636f6e747261637400000000000000000000000000006000830152602082019050919050565b6000611829601e83611dbb565b91507f556e697377617056324c6962726172793a205a45524f5f4144445245535300006000830152602082019050919050565b6000611869602483611dbb565b91507f5472616e7366657248656c7065723a205452414e534645525f46524f4d5f464160008301527f494c4544000000000000000000000000000000000000000000000000000000006020830152604082019050919050565b60006118cf602b83611dbb565b91507f556e697377617056324c6962726172793a20494e53554646494349454e545f4960008301527f4e5055545f414d4f554e540000000000000000000000000000000000000000006020830152604082019050919050565b6000611935600e83611dbb565b91507f616c72656164792d66696c6c65640000000000000000000000000000000000006000830152602082019050919050565b61197181611e39565b82525050565b61198081611e53565b82525050565b6000611992828561141a565b6014820191506119a2828461141a565b6014820191508190509392505050565b60006119be828461149f565b915081905092915050565b60006119d482611590565b91506119e0828561144f565b6020820191506119f0828461144f565b6020820191508190509392505050565b6000611a0b8261175c565b9150611a17828561141a565b601482019150611a27828461144f565b602082019150611a36826114d0565b91508190509392505050565b6000602082019050611a57600083018461140b565b92915050565b6000606082019050611a72600083018661140b565b611a7f602083018561140b565b611a8c6040830184611968565b949350505050565b6000602082019050611aa96000830184611431565b92915050565b6000602082019050611ac46000830184611440565b92915050565b6000608082019050611adf6000830187611440565b611aec6020830186611977565b611af96040830185611440565b611b066060830184611440565b95945050505050565b60006020820190508181036000830152611b2881611510565b9050919050565b60006020820190508181036000830152611b4881611550565b9050919050565b60006020820190508181036000830152611b68816115d0565b9050919050565b60006020820190508181036000830152611b8881611610565b9050919050565b60006020820190508181036000830152611ba881611650565b9050919050565b60006020820190508181036000830152611bc8816116b6565b9050919050565b60006020820190508181036000830152611be8816116f6565b9050919050565b60006020820190508181036000830152611c088161179c565b9050919050565b60006020820190508181036000830152611c28816117dc565b9050919050565b60006020820190508181036000830152611c488161181c565b9050919050565b60006020820190508181036000830152611c688161185c565b9050919050565b60006020820190508181036000830152611c88816118c2565b9050919050565b60006020820190508181036000830152611ca881611928565b9050919050565b6000602082019050611cc46000830184611968565b92915050565b6000604082019050611cdf6000830185611968565b611cec6020830184611968565b9392505050565b6000608082019050611d086000830187611968565b611d156020830186611968565b611d22604083018561140b565b8181036060830152611d348184611466565b905095945050505050565b6000604051905081810181811067ffffffffffffffff82111715611d6257600080fd5b8060405250919050565b600067ffffffffffffffff821115611d8357600080fd5b602082029050602081019050919050565b600081519050919050565b600082825260208201905092915050565b600081905092915050565b600082825260208201905092915050565b600081905092915050565b6000611de282611e19565b9050919050565b60008115159050919050565b6000819050919050565b60006dffffffffffffffffffffffffffff82169050919050565b600073ffffffffffffffffffffffffffffffffffffffff82169050919050565b6000819050919050565b600063ffffffff82169050919050565b600060ff82169050919050565b60005b83811015611e7e578082015181840152602081019050611e63565b83811115611e8d576000848401525b50505050565b6000611e9e82611eaf565b9050919050565b6000819050919050565b6000611eba82611ed2565b9050919050565b6000601f19601f8301169050919050565b60008160601b9050919050565b611ee881611dd7565b8114611ef357600080fd5b50565b611eff81611de9565b8114611f0a57600080fd5b50565b611f1681611df5565b8114611f2157600080fd5b50565b611f2d81611dff565b8114611f3857600080fd5b50565b611f4481611e39565b8114611f4f57600080fd5b50565b611f5b81611e43565b8114611f6657600080fd5b50565b611f7281611e53565b8114611f7d57600080fd5b5056fea26469706673582212202e1dd2a61a30aa9a00e5b06ff1134f1e0e77e4649611cde79c44b359716f3c0a64736f6c634300060c0033",
  "immutableReferences": {
    "318": [
      {
        "length": 32,
        "start": 337
      },
      {
        "length": 32,
        "start": 685
      }
    ],
    "330": [
      {
        "length": 32,
        "start": 1129
      },
      {
        "length": 32,
        "start": 1803
      },
      {
        "length": 32,
        "start": 1914
      },
      {
        "length": 32,
        "start": 3080
      },
      {
        "length": 32,
        "start": 3148
      }
    ]
  },
  "source": "// SPDX-License-Identifier: MIT\n\npragma solidity =0.6.12;\npragma experimental ABIEncoderV2;\n\nimport \"@sushiswap/core/contracts/uniswapv2/libraries/SafeMath.sol\";\nimport \"@sushiswap/core/contracts/uniswapv2/libraries/TransferHelper.sol\";\nimport \"@sushiswap/core/contracts/uniswapv2/libraries/UniswapV2Library.sol\";\nimport \"@sushiswap/core/contracts/uniswapv2/interfaces/IERC20.sol\";\nimport \"@sushiswap/core/contracts/uniswapv2/interfaces/IUniswapV2Pair.sol\";\nimport \"@sushiswap/core/contracts/uniswapv2/interfaces/IUniswapV2Router01.sol\";\nimport \"@sushiswap/core/contracts/uniswapv2/interfaces/IUniswapV2Router02.sol\";\nimport \"./interfaces/ISettlement.sol\";\nimport \"./libraries/EIP712.sol\";\n\ncontract Settlement is ISettlement {\n    using SafeMathUniswap for uint256;\n   // using Orders for Orders.Order;\n\n    // solhint-disable-next-line var-name-mixedcase\n    bytes32 public immutable DOMAIN_SEPARATOR;\n\n    // Hash of an order => if canceled\n    mapping(address => mapping(bytes32 => bool)) public canceledOfHash;\n    // Hash of an order => filledAmountIn\n    mapping(bytes32 => uint256) public filledAmountInOfHash;\n\n    address public immutable factory;\n\n    constructor(\n        uint256 orderBookChainId,\n        address orderBookAddress,\n        address _factory\n    ) public {\n        DOMAIN_SEPARATOR = keccak256(\n            abi.encode(\n                keccak256(\"EIP712Domain(string name,string version,uint256 chainId,address verifyingContract)\"),\n                keccak256(\"OrderBook\"),\n                keccak256(\"1\"),\n                orderBookChainId,\n                orderBookAddress\n            )\n        );\n\n        factory = _factory;\n    }\n\n    // Fills an order\n    function fillOrder(Order memory args) public override returns (uint256 amountOut) {\n        // voids flashloan attack vectors\n        // solhint-disable-next-line avoid-tx-origin\n        require(msg.sender == tx.origin, \"called-by-contract\");\n\n        // Check if the order is canceled / already fully filled\n        bytes32 hash = args.hash;\n        _validateStatus(args, hash);\n\n        // Check if the signature is valid\n        address signer = EIP712.recover(DOMAIN_SEPARATOR, hash, args.v, args.r, args.s);\n        require(signer != address(0) && signer == args.maker, \"invalid-signature\");\n\n        // Calculates amountOutMin\n        uint256 amountOutMin = (args.amountOutMin.mul(args.amountToFillIn) / args.amountIn);\n\n        // Requires args.amountToFillIn to have already been approved to this\n        amountOut = _swapExactTokensForTokens(\n            args.maker,\n            args.amountIn,\n            amountOutMin,\n            args.path,\n            args.recipient\n        );\n\n        // This line is free from reentrancy issues since UniswapV2Pair prevents from them\n        filledAmountInOfHash[hash] = filledAmountInOfHash[hash].add(args.amountToFillIn);\n\n        emit OrderFilled(hash, args.amountToFillIn, amountOutMin);\n    }\n\n    // Checks if an order is canceled / already fully filled\n    function _validateStatus(Order memory args, bytes32 hash) internal {\n        require(args.deadline >= block.timestamp, \"order-expired\");\n        require(!canceledOfHash[args.maker][hash], \"order-canceled\");\n        require(filledAmountInOfHash[hash].add(args.amountToFillIn) <= args.amountIn, \"already-filled\");\n    }\n\n    // Swaps an exact amount of tokens for another token through the path passed as an argument\n    // Returns the amount of the final token\n    function _swapExactTokensForTokens(\n        address from,\n        uint256 amountIn,\n        uint256 amountOutMin,\n        address[] memory path,\n        address to\n    ) internal returns (uint256 amountOut) {\n        uint256[] memory amounts = UniswapV2Library.getAmountsOut(factory, amountIn, path);\n        if (amounts[amounts.length - 1] < amountOutMin) {\n            return 0;\n        }\n        TransferHelper.safeTransferFrom(\n            path[0],\n            from,\n            UniswapV2Library.pairFor(factory, path[0], path[1]),\n            amountIn\n        );\n        _swap(amounts, path, to);\n        amountOut = amounts[amounts.length - 1];\n    }\n\n    // requires the initial amount to have already been sent to the first pair\n    function _swap(\n        uint256[] memory amounts,\n        address[] memory path,\n        address _to\n    ) internal virtual {\n        for (uint256 i; i < path.length - 1; i++) {\n            (address input, address output) = (path[i], path[i + 1]);\n            (address token0, ) = UniswapV2Library.sortTokens(input, output);\n            uint256 amountOut = amounts[i + 1];\n            (uint256 amount0Out, uint256 amount1Out) = input == token0\n                ? (uint256(0), amountOut)\n                : (amountOut, uint256(0));\n            address to = i < path.length - 2 ? UniswapV2Library.pairFor(factory, output, path[i + 2]) : _to;\n            IUniswapV2Pair(UniswapV2Library.pairFor(factory, input, output)).swap(\n                amount0Out,\n                amount1Out,\n                to,\n                new bytes(0)\n            );\n        }\n    }\n\n    // Cancels an order, has to been called by order maker\n    function cancelOrder(bytes32 hash) public override {\n        canceledOfHash[msg.sender][hash] = true;\n\n        emit OrderCanceled(hash);\n    }\n}\n",
  "sourcePath": "/Users/nguyentien/Documents/GitHub/sushiswap-settlement/contracts/Settlement.sol",
  "compiler": {
    "name": "solc",
    "version": "0.6.12+commit.27d51765.Emscripten.clang"
  },
  "schemaVersion": "3.3.4",
  "updatedAt": "2021-04-07T10:28:05.898Z",
  "devdoc": {
    "kind": "dev",
    "methods": {},
    "version": 1
  },
  "userdoc": {
    "kind": "user",
    "methods": {},
    "version": 1
  }
}