{
  "_format": "hh-sol-artifact-1",
  "contractName": "Orders",
  "sourceName": "contracts/libraries/Orders.sol",
  "abi": [
    {
      "inputs": [],
      "name": "ORDER_TYPEHASH",
      "outputs": [
        {
          "internalType": "bytes32",
          "name": "",
          "type": "bytes32"
        }
      ],
      "stateMutability": "view",
      "type": "function"
    }
  ],
  "bytecode": "0x60aa610024600b82828239805160001a607314601757fe5b30600052607381538281f3fe730000000000000000000000000000000000000000301460806040526004361060335760003560e01c8063f973a209146038575b600080fd5b603e6050565b60408051918252519081900360200190f35b7f7c228c78bd055996a44b5046fb56fa7c28c66bce92d9dc584f742b2cd76a140f8156fea2646970667358221220080c14aed9cf6f6faf104f44d3adcdc232a54625dcaad2b029ba94e1405939d264736f6c634300060c0033",
  "linkReferences": {},
  "deployedLinkReferences": {}
}